:020000040000FA
:0600000002138502088ACC
:03002B000211259A
:03003300020C05B7
:030053000207BFE2
:03006B00020BBDC8
:03007B00020BE590
:1000830002081E010000000000F8FF07FFFF000048
:100093000704000000030001FFFFFFFF00451014E9
:1000A300102700000020FD00020000361A000000A7
:1000B300000000961A00000000000000000000008D
:1000C300000000000000000000000000000000002D
:1000D300000000000006FFFF1E20501E000000006D
:1000E300000000000000000000000000000000000D
:1000F3000000FF3C003C00450032000100E8030A19
:10010300000A000A000A000A001E000104010C0094
:100113000201908A0521890204010C0002000000FB
:1001230002748A03040107010200000002788A04B2
:1001330004010C000200000001988A01040000532E
:1001430018000000E8030000FFFFB0180188130047
:1001530000E803000064006400B801A0BB0D00A028
:10016300BB0D0002020207040101051E02051E0267
:100173000A0A0101010809080103B80B02803E01C4
:1001830002FEFFE8030A050001FFFF010A1401E074
:100193000100B0423BAAB83F8C906339AA0CA33A42
:1001A30000941E3C8042633DCFFE753E1572313F85
:1001B300F304353F8096184B000080BF2292D43E53
:1001C300DD9B2A3F04000040FFFF7F7FFFFF7FFF8F
:1001D300010080341872313F020000000105030161
:1001E300010F10FEFF0300030003000300030003DD
:1001F3000003000300030005000A00140028004F59
:10020300009E0000000D36000000007F3400000057
:1002130000FF000000FF001213B360461213D16009
:100223003DE9687008F618F618F618F62274806728
:10023300F712024E090909748067F7221213D1607D
:100243001D1213B37005191919801A12124A701F5F
:1002530012125EC37003E6673319191940071818A1
:10026300182208080874FFF618F618F618F6221272
:10027300125E6017121451702192F012143F70191C
:10028300501720F014080808090909E7F61819E7B8
:10029300F61819E7F61819E7F62212143F60E6E894
:1002A30069701F0808E62480F608E436F618547FC0
:1002B300B47F0CE654806007F6E418F618F62218AB
:1002C3001822E9C6CC08C6CD08C6CE08C6CFC0E002
:1002D300E8C0E0EAC0E0EBC0E009E9F809E7FA09A1
:1002E300E7FBE6F918E6F8C3EC98ED99EE9AEBC252
:1002F300E7F5F0EFC2E795F0500E600CEBCFFBEAA9
:10030300CEFAE9CDF9E8CCF8EAA2E7D2E7FAEB3383
:10031300FB13F5F0EEA2E7D2E7FEEF33FFC5F013D0
:10032300A2E730E601B313C5F0C3C0E0C0F07F001D
:10033300C39BFB605E9418600F401D14601AD0E0ED
:1003430023F9D0E0F80204208AF0E9486003D2F0F0
:10035300E4AFF0FAF9F8803BEB30E40D89F0EA60A2
:1003630003D2F0E4AFF0F9CAF8EB30E30D88F0EF15
:100373006002D2F0AFF0E4CAC9F8EB54076014FB93
:10038300C3EA13FAE913F9E813F8EF135002D2E0C2
:10039300FFDBEDD0E0C0E030E739C3E49FFFF5F0C9
:1003A300EC98FC42F0ED99FD42F0EE9AFE42F0D05B
:1003B300E0F9D0E0F8E5F0607AE923F9EE20E742CE
:1003C300D8028067C3EF33FFEC33FCED33FDEE332C
:1003D300FE80EAEC28FCED39FDEE3AFED0E023F98D
:1003E300D0E0F84002801BC3EE13FEED13FDEC13C7
:1003F300FCEF135002D2E0FF08B800067F7F74FFC2
:10040300802EEF3350178CF020F00260100CBC00EC
:100413000C0DBD00080EBE000408E860DFE933E8F8
:1004230013FFEE2313FE4F4D4C8008E95480FFE485
:10043300FEFDFCEE33EF33F47004FCFD7E80D0E070
:10044300FBD0E0FAD0E0F8D0E0CFC618CEC618CD86
:10045300C618CCC6F9221213D17004181818221228
:1004630013B3700D74FFF61819F61819F61819F668
:1004730022E7548066F612143F700F12145170F085
:1004830014F608F608F608F680D1121451700CF62B
:1004930008F608768008E6447F80EC121261700C3F
:1004A30012124D60BFE65480F6E480BB12124D7009
:1004B3000519191980A5E869700C763F187680181C
:1004C300F618F6E8F922E6CDC0E018ECC0E0E63312
:1004D300CD33CDD313F6E719FCE7191933CC33C366
:1004E300947F400ECD9D502408E65480F6E418F620
:1004F300800FF4043D14501408E6447FF618768008
:10050300E418F618F6D0E0FCD0E0FD22CCD313CCEF
:10051300FD18E4C6CBC0E018E4C6CAC0E00808ED85
:1005230008C633E613F618E433C675F003C3CA9757
:10053300CA09CB97CB199C40047D08802EBD0003CC
:1005430002060216B6FF050606081618C3CA33CA02
:10055300CB33CB33CA27CA09CB37CB193CC37D086E
:10056300803E187D0820E75CC633C6CA33CACB3346
:10057300CB33DDF1D5F0EB30E77BCA97CA09CB97D4
:100583004ACB199C406F4B7025E620E0218066180A
:100593007D08C3CA97CA09CB97CB199CD3C633C668
:1005A300CA33CACB33CB3350C9DDE7D5F0E1D3E44B
:1005B300C636C608C636C608C636C608C636C61800
:1005C30018188031C3CA97CA09CB97CB199CB3407B
:1005D30097C633C6CA33CACB33CB33DD34D5F02EFB
:1005E300C6A2E0C640C8CA27CA09CB37194A70BE9B
:1005F300CB3CB480B90808E63308E633601F18180B
:1006030018D0E0FAD0E0FBD0E0FCD0E0FD22187D6A
:1006130008CA27CA09CB37CB193CD3808013F618F5
:10062300E4B67F11F618B6FF0EF618C60470D208AA
:1006330008768080CAF618F618F680C5001213D122
:10064300604F1213B36012E7548066F612124A70B9
:1006530011121451703B090909F4F618F618F6182B
:10066300F62212125E701512143F08080860EAE6BB
:10067300447FF618768018E4F618F62212143F60C9
:10068300161214517012E4F608F608F608E65480C0
:10069300F609090918181822EAC0E0EBC0E0ECC01B
:1006A300E0EDC0E0E687F0A4FBACF008E687F0A439
:1006B3002CFCE435F0FA1809E687F0A42C4B600211
:1006C3007401CA35F0FCE433FB09E687F0D2F7A4E2
:1006D3002CCB35F0FC1908E687F0A42BCC35F0FBC6
:1006E300E433FD0819E687F0D2E7A42C4ACB35F0B2
:1006F300CD3400FC09E687F0D2E7A42DCC35F0FD1C
:10070300E433FA0918E687F0D2F7A42CCD35F0CA02
:100713003400FC08E687F0D2E7D2F7A42ACC35F000
:100723007A7E20E70B0ACB33CBCD33CDCC33CC331E
:10073300CB3350147004ED30E00ED2F1E4CD3DCD57
:10074300CC3CCC3B5005DA05C2F1EB547FC63308F1
:10075300E63392F0FBE73309E733C39A502D2B704E
:10076300190C0D4C4D70151806E608C333700D2097
:10077300F10AA2F013F6E418800B4024E4F630F0FB
:1007830002768018F618F618F68024D33B1450101E
:1007930074FFA2F013F6187680E418F618F6800FAB
:1007A300A2F013F618E63303F618ECF618EDF6D0BC
:1007B300E0FDD0E0FCD0E0FBD0E0FA22C0E074F131
:1007C300120C25A2AFE433F509D2AF85A708AFA178
:1007D300EF5508FE74105E60061217BA75A1EF7428
:1007E300085E60081217C075A1F78024EFA2E0929B
:1007F300F0E508A2E082F05017906198E0F89005C8
:1008030057E0C398A2D265D0335002E8F075A1FE39
:10081300E509A2E092AF7F02020C84C0E074F212F9
:100823000C25A2AFE433FED2AF9061A4E0F8759B30
:1008330000E59158540860087591F712180E80234B
:10084300E59158541060087591EF1218148014E55F
:1008530091A2E092F0E8A2E082F05007E0C2E0F05B
:1008630012195E9061A3E0F8E5E9585404600E1292
:10087300193475E9FB906193E0A2E640F2EEA2E041
:1008830092AF7F01020C84C0E074F2120C25A2AF78
:10089300E433FED2AF9061A5E0F8E5BF585404609D
:1008A3000675BFFB12197680D412090130F043128A
:1008B3000946803E8A088B098C0A8D0B7808120939
:1008C3000120F01430E72B74FFFCFBFA747F8022C5
:1008D300E4FCFBFA7480801AB48008BC00F2BB000D
:1008E300EF800F50EBF9E4C39AFAE49BFBE49CFC22
:1008F300E499C6CC18C6CB18C6CA18C6F922E4C9EF
:10090300C608CAC608CBC6D3330308CCC63392F095
:10091300C3947F402E94184019C9B90704CACBCC9D
:10092300225025C309CA33CACB33CBCC33CC33D9FA
:10093300F422F4600DC9CCC313CB13CBCA13CAD9A9
:10094300F6CC22E4FCFBFA2214FCFBFA22C3E49863
:10095300F8E499F91209918026C3E49AFAE49BFB1F
:10096300E920E7E9120991E498F8E499F922C3E44C
:1009730098F8E499F9120991E498F8E499F9C3E431
:100983009AFAE49BFB22EB20E7CFE920E7E0B900EA
:1009930010BB0008E88AF084F8AAF022E4FBC8FA46
:1009A30022EB70227B10C833C8C933C9335007C345
:1009B3009AC3DBF280069A50012ADBEAC833F4C8F3
:1009C300C933F4C9FA2275F008E4C833C8C933C976
:1009D30033C99AC99B5004C92AC93BD5F0ECFBC85B
:1009E30033F4C8E4C9FA22080808EAC0E0EBC0E01F
:1009F30086F0E7A4FA180986F0E7A42AFA1809860C
:100A0300F0E7A42AFA180986F0E7A42AFA1986F06F
:100A1300E7A4FBE5F02AFA190886F0E7A42BFBE527
:100A2300F03AFA190886F0E7A42BFBE5F03AFA1836
:100A3300180986F0E7A4C5F02BFBE43AFA1908E796
:100A4300C5F0C6A426F6E5F03BFBE43AFA1886F0B7
:100A5300E7A4F6E5F00826F6E43B08F6E43A08F6E0
:100A6300D0E0FBD0E0FA22080808E630E7111212C2
:100A730022120A82080808C64480C61818182218C9
:100A83001818E9799EC608CAC608CBC608CCC6C3DF
:100A930070207996CACBCC7019798ECBCC70137930
:100AA30086CC700EF9802ACA33CACB33CBCC33CC75
:100AB300331930E7F2CCCBCA3350147004EA30E078
:100AC3000DE4CA3ACACB3BCBCC3CCC500209C3E9B8
:100AD30013C6CC182313C6CB18C6CA18C6F922E40A
:100AE300CFC0E0E4CEC0E0E4CDC0E0E4CCC0E0752C
:100AF300F020E626F608E633F608E633F608E63392
:100B0300F6181818EC33FCED33FDEE33FEEF33FF2C
:100B1300C3EC9709ED9709EE9709EF971919194057
:100B23000FFFEC97FC09ED97FD09EE97FE191906E7
:100B3300D5F0BFECF709EDF709EEF709EFF719194F
:100B430019D0E0FCD0E0FDD0E0FED0E0FF2225216B
:100B5300C582C0E0E52234FFC583C0E0E521C3952B
:100B63008224F810AF08858322858221800885833B
:100B730022858221D2AFCEF0A3E520F0A37808E648
:100B830008F0A3DEFAEFF0A3E58124FAF8E608F013
:100B9300A3E608F0A3E608F0A30808E608F0A3E636
:100BA30008F0A315811581D0E0FED0E0F81581157A
:100BB300811581E8C0E0EEC0E022C0E074F2120CBF
:100BC30025A2AFE433FED2AFE589A2E05005790157
:100BD30012172A758900C2C5EEA2E092AF7F010207
:100BE3000C84C0E074F2120C25A2AFE433FED2AF42
:100BF300E58AA2E35005790212172A758A00C2EB2F
:100C030080D6C0E074F2120C25A2AFE433FED2AF5B
:100C1300E58BA2E05005790412172A758B00C2E810
:100C230080B6C0D02521C582C0E0E52234FFC5834C
:100C3300C0E0E521C3958224F310AF0885832285A4
:100C430082218008858322858221D2AFC8F0A3E95F
:100C5300F0A3EAF0A3EBF0A37908E709F0A3D8FA2D
:100C6300ECF0A3EDF0A3EEF0A3EFF0A3D0E0F0A33C
:100C7300D0E0F0A3D0E0F0A3E520F0A3E5F0F0A3EB
:100C830022852283852182E0C0E0A3E0F9A3E0FA74
:100C9300A3E0FBA37808E0F608A3DFFAE0FCA3E0F7
:100CA300FDA3E0FEA3E0FFA3E0C0E0A3E0C0E0A358
:100CB300E0F5D0A3E0F520A3E0A3F5F010AF08859D
:100CC30083228582218008858322858221D2AFD029
:100CD30082D083D0E0F8D0E03212142AB9000302A4
:100CE3000D1BE490040178AB79188002F0A3D8FCC3
:100CF300D9FA7AAB7B1B900086789579028015E44C
:100D030093A3AD82AE838A828B83F0A3AA82AB8343
:100D13008D828E83D8E9D9E77582677583C9740696
:100D23001210B67582B875833174001210B60000C4
:100D33002275F0108E238F248582288583278521B1
:100D430082852283E0CEA3E0CF852882852783EBAB
:100D5300C9EAC8EDCBECCAC3E833C8E933C9EA33FF
:100D6300CAEB33CBC3EA9EF526EB9FF525B35004BC
:100D7300AB25AA26EC33CCED33CDD5F0DAAE23AFD9
:100D830024221213D1601C1213B3601712143F7084
:100D9300071214517001D322C0D01214517006D01F
:100DA300D0B322C32233D0D0501430E0F6C3E79639
:100DB3000809E7960809E7960809E796B32220E0B1
:100DC300D5E6970809E6970809E6970809E697B371
:100DD300221213D1601B1213B3601612143F700753
:100DE300121451600CB322C0D01214517005D0D02C
:100DF30022C32233D0D0501330E0EBC3E796080967
:100E0300E7960809E7960809E7962220E0E4E697C3
:100E13000809E6970809E6970809E69722D083D0E0
:100E230082ECC0E0EDC0E0E493A3FCE493A3FDED0A
:100E33004C600D120EF8EC24FFFCED34FFFD80EF47
:100E4300E493A3FCE493A3FDED4C600D120FC1ECFE
:100E530024FFFCED34FFFD80EFD0E0FDD0E0FCE4A7
:100E630093A3C0E0E493C0E022D083D082E9C0E042
:100E7300E493A3C386F0C5F095F0F908E493A38641
:100E8300F0C5F095F0700BE493A3C3994005E90412
:100E93008002A3E475F002A42582F582E5F0358390
:100EA300F583D0E0F9E493A3C0E0E493C0E02285A6
:100EB3002283852182E0A3FEE0A3F5207808E0A346
:100EC300F608DFFAE0A3FFE0A3C0E0E0A3C0E0E0A0
:100ED300A3C0E0E0A3C0E0E0A3C0E010AF088582B8
:100EE300218583228008858221858322D2AFD08306
:100EF300D0820210BCC0E0C3E493960874019396B9
:100F030018400FE493667008087401936618700024
:100F13007019A3A3C3E49396087401939618A3A32B
:100F2300400DD0E0D0E0D0E0020E5CA3A3A3A3A3C6
:100F3300A3D0E0227404800474028000CCC0E0EDEE
:100F4300C0E0E521C39CCCAD2250011D10AF068C3F
:100F5300218D2280068C218D22D2AF121038D0E051
:100F6300FDD0E0FC2274028000CCC0E0EDC0E0E5DF
:100F730021C39CCCAD2250011D10AF068C218D22C4
:100F830080068C218D22D2AF121016D0E0FDD0E066
:100F9300FC221213D160251213B3602012143F7088
:100FA30003021451080808E76670101819E7667001
:100FB3000A1819E76670041819E76622F422C0E0DC
:100FC300C0F088F0E49366700808740193661870A3
:100FD30000A8F0A3A3700BD0F0D0E0D0E0D0E002E3
:100FE3000E5CA3A3D0F0D0E022D083D082CCC0E0AB
:100FF300E493A360061210781470FAE493A36006D6
:101003001211B81470FAD0E0FCE493A3C0E0E493A7
:10101300C0E022CAC0E0E493A3C582CCC582C583E5
:10102300CDC583F0A3C582CCC582C583CDC583DA84
:10103300E5D0E0CA22CAC0E0E0A3C582CCC582C520
:1010430083CDC583F0A3C582CCC582C583CDC583BB
:10105300DAE6D0E0CA2270090808082260161818D8
:1010630018C6C333C608C633C608C633C608C63354
:10107300C6D5E0EA22C0E0E493A3D39C5010E493E6
:10108300A3C39C400AD0E0D0E0D0E0021009A3A3A0
:10109300A3D0E022C008C3E096F50808A3E0964277
:1010A3000808A3E096420808A3E09645087001D318
:1010B300D00822C09FF59FE473D09F22D083D082B3
:1010C300C09FE493C0E0740193C0E0740293F59F62
:1010D300222521F58210AF08F521400C1522800846
:1010E300F52140021522D2AF8522832200C0D025EC
:1010F3002110AF08F521500C05228008F52150027C
:101103000522D2AFD0D0227404800A7403800674FF
:101113000280027401C0E0F4041210D4D0E0121370
:10112300ED22C0E0C0D0E8C0E0A8A8D2AFC2C7E8B3
:10113300A2E792AFD0E0F8D0D0D0E032BB0102E713
:1011430022C082C08389828A83BB0003E08002E4D9
:1011530093D083D082226016080808C6C313C6182A
:10116300C613C618C613C618C613C6D5E0EA222589
:1011730021F8E43522F9222521FAE43522FB222540
:1011830021FCE43522FD22C3E0C696F608A3E0C69F
:1011930096F608A3E0C696F608A3E0C696F62225BF
:1011A3002110AF08F521400C15228008F5214002DB
:1011B3001522D2AF22C0E0E493A36C7009D0E0D033
:1011C300E0D0E0021009A3A3D0E022C3E09608A375
:1011D300E09608A3E09608A3E096A2D265D0332256
:1011E300E76670100809E766700A0809E766700485
:1011F3000809E76622C3E7960809E7960809E79610
:101203000809E796A2D265D03322E066701008A3DE
:10121300E066700A08A3E066700408A3E06622187B
:101223001818E4C396F608E496F608E496F608E47C
:1012330096F622C3E096F008A3E096F008A3E096A2
:10124300F008A3E096F022181818E608460870097B
:10125300E626087005E633F4220822191919E7096E
:1012630047097009E727097005E733F4220922C308
:10127300E697F60809E697F60809E697F60809E6F9
:1012830097F622C3E4939608740193960874029325
:1012930096087403939622E627F60809E637F608BC
:1012A30009E637F60809E637F622700422600D18BE
:1012B300C6C333C608C633C6D5E0F41822E657F6CC
:1012C3000809E657F60809E657F60809E657F6222D
:1012D300E056F008A3E056F008A3E056F008A3E0B8
:1012E30056F022E026F608A3E036F608A3E036F629
:1012F30008A3E036F622E026F008A3E036F008A3C0
:10130300E036F008A3E036F022E647F60809E647A0
:10131300F60809E647F60809E647F622E493F608D5
:10132300740193F608740293F608740393F622E0AB
:1013330056F608A3E056F608A3E056F608A3E056CF
:10134300F622600D08C6A2E713C618C613C6D5E079
:10135300F322C6F4C608C6F4C608C6F4C608C6F423
:10136300C622C3E09608A3E09608A3E09608A3E08C
:101373009622C3E7960809E7960809E7960809E75E
:10138300962275D00075813F7521017522040002F4
:101393000CDC600C08C6C313C618C613C6D5E0F42C
:1013A30022E6F008A3E6F008A3E6F008A3E6F0229D
:1013B300E7094709C3134709336002E733F422E01F
:1013C300F608A3E0F608A3E0F608A3E0F622E60891
:1013D3004608C3134608336002E633F42280010053
:1013E300E9F874FF28F90470F622CAC0E0E6F0A316
:1013F30008DAFAD0E0FA22E0F8A3E0F9A3E0FAA3CE
:10140300E0FB22E8F0A3E9F0A3EAF0A3EBF022EA81
:10141300F0A3EBF0A3ECF0A3EDF022E0FAA3E0FBE2
:10142300A3E0FCA3E0FD22E5C754F84401F5C77926
:1014330001222521F582E43522F58322E62618468A
:101443001846184622C2AF75D69F02000022E7272E
:10145300194719471947221210BF66B5041210BF66
:1014630021B6041210BF84B6041210BFC8B604120A
:1014730010BF62B7041210BFE0B7041210BF13B855
:10148300041210BF21B9041210BF41B9041210BFD6
:1014930095B9041210BF7DBA041210BF7FBC0412A9
:1014A30010BF21BD041210BF71BF041210BFF5BFDE
:1014B300041210BFFAC2041210BF2EC5041210BFCB
:1014C30066C5041210BFC5C6041210BFCFC60412EE
:1014D30010BF1EC7041210BFF0C8041210BF4FCBB9
:1014E300061210BF83CB061210BFD6CB061210BF55
:1014F300D9CC061210BF18C3061210BF76C306124A
:1015030010BFB8C3061210BFDAC3061210BFB5C4AA
:10151300061210BFF9C4061210BF2EC5061210BF63
:1015230005CE051210BF81CE051210BFB4CE051231
:1015330010BFE2CE051210BF20CF051210BF5BD142
:10154300051210BF7AD1051210BFBFD1051210BF0B
:1015530055D2051210BFA1D2051210BF35D3051203
:1015630010BF0DD4051210BF69D4051210BFC7D424
:10157300051210BF44D5051210BF7AD5051210BF4E
:10158300C5D5051210BFEBD5051210BF7BD60512CA
:1015930010BF12D7051210BF5ED7051210BF8FD729
:1015A300051210BFC6D7051210BF4CD9051210BFC4
:1015B30016DA051210BFE6DA051210BF0080061214
:1015C30010BF0A80061210BF7C80061210BF8780EE
:1015D300061210BF9280061210BFAD80061210BF14
:1015E300BC80061210BFF180061210BF19810612CB
:1015F30010BF4181061210BF7081061210BF6D82A9
:10160300061210BFBA82061210BFCF82061210BF95
:101613006183061210BFB083061210BFDC8306126B
:1016230010BF0185061210BFCE86061210BFFFB28F
:10163300061210BF2BB3061210BF4BB3061210BF16
:1016430072B3061210BFB9B4061210BFDAB4061291
:1016530010BF95B5061210BF2CB6061210BFE6DDFB
:10166300061210BFEBDD061210BF1EDE061210BFFE
:101673007DBE061210BF44BF061210BF56BF06122E
:1016830010BFD1BF061210BF74DA061210BF85DA7D
:10169300061210BF23DB061210BF2EDB061210BF8B
:1016A30046DB061210BFFCFF011210BF0EDF06124D
:1016B30010BF2FFF051210BF3FFF051210BF54FFCD
:1016C300051210BFBCFF051210BF80D7061210BF52
:1016D30003D8061210BF69D8061210BF5DC70612E1
:1016E30010BF71C7061210BFD8C7061210BF21C89A
:1016F300061210BF49C8061210BF6DC8061210BFEC
:1017030090C8061210BFC8C8061210BFF0C8061250
:1017130010BF2BC9061210BF66D6061210BFEDD636
:10172300061210BF02D7061210BF3AD7061210BF17
:101733008EAF061210BF9CAF061210BF15B0061273
:1017430010BFEDB0061210BFB0B2061210BFB6DE66
:10175300061210BF53FA051210BF7FFA051210BF0D
:10176300C3FC051210BF03FD051210BF43FD051294
:1017730010BF57FD051210BF70FD051210BF62FEAA
:10178300051210BF07FF051210BF1BFF051210BF84
:1017930044D0061210BF68D0061210BF81D00612C3
:1017A30010BFB3D0061210BFE3D0061210BF10D182
:1017B300061210BF72D1061210BF81D1061210BFDC
:1017C3008BD1061210BF98D1061210BFD8BB0612D8
:1017D30010BFF8BB061210BF37BC061210BF52BCB5
:1017E300061210BF71BC061210BFD7BC061210BF81
:1017F300E0BC061210BF3DBD061210BF4CBD061261
:1018030010BF70BD061210BF31BE061210BF3EBE20
:10181300061210BF4FBE061210BF55DB061210BFD3
:101823009DDB061210BFC9DB061210BFB19706126B
:1018330010BF0B99061210BF1999061210BF2C99ED
:10184300061210BF4199061210BF5699061210BF17
:101853006999061210BFDD99061210BF429A06124B
:1018630010BFE49A061210BFA89B061210BFB89BC4
:10187300061210BFC79B061210BF34FF011210BF20
:1018830058FF011210BF80FF011210BFA8FF011201
:1018930010BFA2FD031210BFC9FD031210BFE7FD65
:1018A300031210BF5AFE031210BF05B9061210BF70
:1018B3001EB9061210BF2AB9061210BF3EB906128E
:1018C30010BF5CB9061210BF66B9061210BF70B91B
:1018D300061210BF83B9061210BF09BA061210BF51
:1018E3007EBA061210BFADBA061210BFFBBA0612BB
:1018F30010BF4ABB061210BF65BB061210BF6FBBF9
:10190300061210BF80BB061210BFC3BB061210BF66
:1019130041DD061210BF7189061210BF9B890612A2
:1019230010BFB889061210BFCB89061210BFE18918
:10193300061210BF3F8A061210BF778A061210BF25
:101943006B8E061210BFB08F061210BFE38F061204
:1019530010BF4690061210BFA691061210BFCE917B
:10196300061210BFE391061210BFF391061210BFC7
:101973003792061210BF9292061210BFA29206125D
:1019830010BF18D4061210BF32D4061210BF5AD497
:10199300061210BF73D4061210BF97D4061210BFDD
:1019A300B5D4061210BFCCD4061210BFFAD4061257
:1019B30010BF15D5061210BF72DE061210BF09AC98
:1019C300061210BF19AC061210BF1EAD061210BFCF
:1019D30050AD061210BF80AD061210BFA3AD0612A4
:1019E30010BFBAAD061210BFF4AD061210BF59AE48
:1019F300061210BF9BAE061210BFDAAE061210BF5E
:101A03000BAF061210BF36AF061210BFE6D2061296
:101A130010BF04D3061210BF64D3061210BF03D441
:101A2300061210BF82D9061210BFA2D1061210BF30
:101A3300C6D2061210BF7CE6051210BFE3E90512F9
:101A430010BFD4EB051210BF0AED051210BFEBED6A
:101A5300051210BF67EF051210BF33F0051210BF58
:101A630087F0051210BF33CD061210BF54CD0612F6
:101A730010BF79CE061210BFA3CE061210BFBFFF50
:101A8300051210BFCFFF051210BFD9FF051210BFFB
:101A930001AF051210BF04AF051210BF9CB60512AB
:101AA30010BFA8B7051210BF27B9051210BFE9B9B7
:101AB300051210BFCFBA051210BFC6BB051210BF67
:101AC300B4BC051210BF71BD051210BFA1BD051234
:101AD30010BF52BF051210BFE0CE061210BF00CFD9
:101AE300061210BF14D0061210BF17D0061210BF73
:101AF300FC7E001210BF327F001210BF487F00121D
:101B030010BF8A7F001210BF9A7F001210BFDE7FC2
:101B1300001210BFE87F001210BFA3F6031210BF1C
:101B2300E6F6031210BF4BF7031210BF68F7031258
:101B330010BF81F7031210BF23F8031210BF2CF854
:101B4300031210BF71F8031210BF9AF8031210BFEB
:101B5300A7F8031210BF22F9031210BFADF9031245
:101B630010BFF2F9031210BF3DFA031210BFA2FA1D
:101B7300031210BFC5FA031210BF36FB031210BFC6
:101B83008BFB031210BFC6FB031210BFFBFB031238
:101B930010BF0DFC031210BF1FFC031210BF3EFC4D
:101BA300031210BF47FC031210BFF5FC031210BF52
:101BB30038FD031210BF76FD031210BF2DDC061291
:101BC30010BFD292061210BF1294061210BF3594A2
:101BD300061210BF4694061210BF1896061210BFC5
:101BE3003896061210BFE2C0061210BF18C10612C3
:101BF30010BF60C1061210BFB9C2061210BF6E9BA0
:101C0300051210BF879C051210BFC19C051210BF9F
:101C13006F9E051210BF9D9E051210BF03A10512F2
:101C230010BF43A1051210BFE7A2051210BF77A38F
:101C3300051210BFCBA3051210BF6DA4051210BF70
:101C4300AFA4051210BFF1A4051210BF4EA60512D2
:101C530010BF9CA7051210BFD3A9051210BF01AA7C
:101C6300051210BF28AA051210BF31AA051210BF12
:101C730088AA051210BF23AB051210BF2BAE0512A5
:101C830010BFB2AE051210BFEEDE061210BF04DFA6
:101C9300061210BF34A0061210BF4AA0061210BFCE
:101CA300EEA0061210BF2DA1061210BF4AA1061204
:101CB30010BF7BA1061210BFC8A1061210BFFBA163
:101CC300061210BF36A2061210BF2BA4061210BFB5
:101CD30082D8061210BFE1D8061210BF1FD9061210
:101CE30010BF60D9061210BF8ADC061210BF008035
:101CF300041210BF0C80041210BF6E80041210BFB8
:101D03007880041210BF0981041210BF45810412A8
:101D130010BF3582041210BF8282041210BF1183D8
:101D2300041210BF4783041210BFC283041210BFF2
:101D33009185041210BF8B87041210BF69880412A7
:101D430010BF8789041210BFCD8B041210BF108DF2
:101D5300041210BFBF8D041210BF5F92041210BF94
:101D63005393041210BFF793041210BF1C94041270
:101D730010BFB894041210BFCD94041210BFF19495
:101D8300041210BF5F95041210BF7C95041210BF9C
:101D9300A695041210BF3C97041210BF5D9704125E
:101DA30010BF0398041210BF4B98041210BFA098E1
:101DB300041210BF4099041210BFA499041210BF5B
:101DC300029A041210BFAB9A041210BF199B04129B
:101DD30010BF4C9B041210BFBA9B041210BFF59C9A
:101DE300041210BF6B9E041210BF089F041210BF91
:101DF30046A1041210BFAFA1041210BFD9A104124F
:101E030010BFF5A3041210BF9CA6041210BFC5A7F0
:101E1300041210BF40C0051210BF6BC0051210BFE3
:101E230084C2051210BFA8C6051210BF02C805124E
:101E330010BFB7C8051210BF37C9051210BF7AC942
:101E4300051210BF3ECA051210BF5FCB051210BFAB
:101E53000ACC051210BF27CC051210BF44CC0512C3
:101E630010BF8ACC051210BFFACC051210BFEECDFD
:101E7300051210BF8CDD061210BF11FA011210BF3C
:101E83009EFA011210BF18FB011210BF39FB011299
:101E930010BF15FC011210BF82FD011210BF00809C
:101EA300051210BF3280051210BFAE80051210BF9D
:101EB300FC81051210BFDE82051210BF9484051247
:101EC30010BFB984051210BF0B85051210BF8D8595
:101ED300051210BFD485051210BFE785051210BF88
:101EE3003E86051210BF9786051210BF5D87051247
:101EF30010BFCD87051210BFF787051210BF4088AA
:101F0300051210BFC589051210BF9E8A051210BFA6
:101F1300ED8B051210BFCE8C051210BF568D051226
:101F230010BF998D051210BFB38D051210BFFA8D26
:101F3300051210BF1A8E051210BFD58E051210BFE1
:101F4300E28F051210BFF68F051210BF4A900512DB
:101F530010BFA490051210BFFB90051210BFF7919C
:101F6300051210BF8C94051210BFAB94051210BF5D
:101F73002095051210BF4595051210BFAF950512A8
:101F830010BF7796051210BFB496051210BF2E9797
:101F9300051210BF2A98051210BF2D98051210BF05
:101FA3003798051210BF4198051210BF54980512B7
:101FB30010BFC698051210BFFC98051210BF2899D0
:101FC300051210BF4F99051210BF7399051210BF68
:101FD300AE99051210BF209A051210BF489A051238
:101FE30010BF529A051210BF8E9A051210BFA89AFD
:101FF300051210BFCD9A051210BFFB9A051210BF30
:10200300119B051210BF299B051210BF3B9B0512A4
:1020130010BF2CDE061210BF44DE061210BFF9FFFC
:10202300011210BF5FD5031210BF82D5031210BF78
:10203300E0D6031210BF29D7031210BF91D70312A2
:1020430010BFEFD7031210BFF2D7031210BF3ED851
:10205300031210BFB1D8031210BF44D9031210BF2B
:1020630047D9031210BFD0D9031210BF11DA0312DC
:1020730010BF2BDE031210BFC4DF031210BFFEDF3D
:10208300031210BF67E0031210BFB2E3031210BFC5
:102093003DE4031210BFC9E5031210BFDBE60312D0
:1020A30010BFFBE7031210BF83E8031210BF56E90A
:1020B300031210BFBBE9031210BFBEE9031210BF26
:1020C30081EA031210BFA9EB031210BF5AED0312EA
:1020D30010BF2FEF031210BFF0EF031210BF8CF0ED
:1020E300031210BF91F1031210BF02F4031210BFC9
:1020F3006FF5031210BFBCF5031210BF85CA04129B
:1021030010BF2FCB041210BF95CB041210BFAECB60
:10211300041210BF26CC041210BF6ACC041210BFE5
:1021230085CD041210BFC1CD041210BF35CE0412E9
:1021330010BF80CE041210BFDFCE041210BFEFCF4A
:10214300041210BF16D3041210BF44D4041210BFDC
:10215300C5D4041210BFCBD6041210BF74D7041217
:1021630010BF1FD8041210BF7ED8041210BFF3D8BB
:10217300041210BF4EDA041210BF12DB041210BF98
:102183005CDB041210BF78DB041210BF1EDC0412E8
:1021930010BF6ADC041210BFF6DC041210BF4EDE5F
:1021A300041210BFE7DF041210BF16E1041210BFC0
:1021B300D8E2041210BF83E3041210BFECE304124D
:1021C30010BF16E5041210BF94D9021210BF08DA2B
:1021D300021210BF50DA021210BF94DA021210BFBB
:1021E300E3DA021210BF2DDB021210BF65DB02120D
:1021F30010BFE3DB021210BF3DDC021210BF91DD02
:10220300021210BF20DE021210BF40DF021210BF05
:1022130068DF021210BFA8E0021210BF02F8051215
:1022230010BFD1E0021210BFD8E1021210BFA0E22A
:10223300021210BFADE3021210BFD1E3021210BFAE
:10224300DEB4041210BF09E4021210BF2BE4021221
:1022530010BF48E4021210BF26E5021210BF7EE54C
:10226300021210BF0EE8021210BF5DE8021210BF87
:102273007CE8021210BF60E9021210BF96E9021255
:1022830010BFC6EA021210BF43EB021210BF92EB5B
:10229300021210BFCAEB021210BF2BEC021210BFC6
:1022A300D1EC021210BF6EB1041210BF9FEF0212E5
:1022B30010BF1DF1021210BFFEF2021210BF64F52F
:1022C300021210BF14F7021210BFE4F7021210BF7C
:1022D30052F8021210BF69F8021210BF61F902121C
:1022E30010BF51FA021210BFBCFA021210BF22FC37
:1022F300041210BFC7FD041210BF84FE041210BFE6
:10230300E8FE041210BF5CFF041210BF23A80612DC
:1023130010BF41A8061210BF85A8061210BFABA8B4
:10232300061210BFD1A8061210BFE9A8061210BFEB
:1023330001A9061210BF64A9061210BFA6A90612AE
:1023430010BFC9AA061210BFD2AA061210BFDBAA79
:10235300061210BFE4AA061210BFEEAA061210BF9F
:102363000FAB061210BF53FB021210BF7FFF021206
:1023730010BF8DFF021210BF92FF021210BFDCC903
:10238300061210BFE1FF041210BF2FB6061210BFD2
:1023930048D5061210BFCCDB061210BF4EC506127D
:1023A30010BFCDFF011210BF38A4061210BFE2DC2C
:1023B300061210BFF2DC061210BF009C061210BFFB
:1023C3000080021210BF3280021210BF9E800212E0
:1023D30010BF3981021210BFD881021210BF1D82B3
:1023E300021210BF3F82021210BF5882021210BFA6
:1023F3007E82021210BFA082021210BFDE8202127E
:1024030010BF2283021210BF4483021210BFA6839F
:10241300021210BF6D84021210BF2485021210BF76
:102423009685021210BF6886021210BFB28602128E
:1024330010BF0587021210BF6B87021210BFA5875A
:10244300021210BFF787021210BF1388021210BFC7
:102453003E88021210BF458A021210BF998B0212E6
:1024630010BFBB8B021210BFEF8B021210BF108C78
:10247300021210BF1F8C021210BF2A8C021210BF4F
:10248300DA8C021210BF438D021210BFF08D0212BC
:1024930010BF288E021210BFEE8E021210BFFB8FE8
:1024A300021210BF4590021210BFD490021210BF47
:1024B3003891021210BF7391021210BFDF93021200
:1024C30010BF3395021210BF6C98021210BF3999D6
:1024D300021210BFC799021210BFF099021210BF67
:1024E300629A021210BFF69A021210BF549B021294
:1024F30010BF469C021210BF689C021210BFC49DFD
:10250300021210BFDD9D021210BFF09D021210BF18
:102513004D9E021210BF5C9E021210BFEF9E02126C
:1025230010BFFB9F021210BF08A0021210BF11A020
:10253300021210BFE9A1021210BF0FA3021210BFB3
:102543001FA3021210BF21A4021210BF98A40212EB
:1025530010BFC7A4021210BFDCA5021210BFA8A7A8
:10256300021210BF80AB021210BF8AAB021210BF5F
:102573009EAB021210BFA8AB021210BFB2AB021285
:1025830010BFBCAB021210BFD5AB021210BFDFAB42
:10259300021210BF53AC021210BF5EAC021210BF86
:1025A30083AC021210BF8EAC021210BFDCAC02125D
:1025B30010BFE6AC021210BFF1AC021210BF15AD92
:1025C300021210BF39AD021210BF95AD021210BF37
:1025D300DBAD021210BFF8AD021210BF75AE0212CE
:1025E30010BFACAE021210BFEBAE021210BF38AF79
:1025F300021210BFBAAF021210BF53B0021210BFC3
:1026030023B2021210BF81B2021210BF9DB3021295
:1026130010BFC3B3021210BF02B5021210BF28B815
:10262300021210BF69BA021210BF45BC021210BFDA
:10263300DBBC021210BF02BF021210BFAEBF0212F8
:1026430010BFE3BF021210BF48C0021210BF52C036
:10265300021210BF7CC2021210BFA3C3021210BF2A
:10266300E3C3021210BF89C4021210BF1AC60212BA
:1026730010BFA3C7021210BFC3C7021210BF1CC8EA
:10268300021210BF1EC9021210BF68C9021210BF86
:10269300B8C9021210BFA2CA021210BF17CB02128E
:1026A30010BF31CC021210BFACCC021210BFB1CD9F
:1026B300021210BF5CD0021210BF7BD0021210BFF7
:1026C300DCD1021210BF9ED3021210BFF2D302124A
:1026D30010BFAAD4021210BF59D5021210BFAFD532
:1026E300021210BF65D6021210BFFAD6021210BF33
:1026F30066D7021210BFA0D7021210BFD1D70212A1
:1027030010BF2DD9021210BF0080031210BF3280F8
:10271300031210BF6980031210BF5282031210BF4D
:102723003583031210BF8D83031210BFC8840312B5
:1027330010BF1485031210BF3C88031210BF9E8B79
:10274300031210BFEB8C031210BF818D031210BF55
:102753008D8D031210BFBF8D031210BF418F031263
:1027630010BFDC90031210BF8491031210BFC791F6
:10277300031210BF2D92031210BF4A92031210BF0F
:102783007A92031210BFAF92031210BF7F9303120A
:1027930010BF2894031210BFAC96031210BFCC973E
:1027A300031210BFB598031210BF3799031210BF5D
:1027B300569D031210BF939D031210BFEB9D03128E
:1027C30010BF1E9E031210BF9F9E031210BFEC9EEC
:1027D300031210BF779F031210BFC99F031210BFCC
:1027E300A0A0031210BF59A1031210BFF4A103123A
:1027F30010BF0DA5031210BF2DA6031210BFDAA937
:10280300031210BFF8AA031210BFFBAA031210BFD2
:102813002AAB031210BF30AD031210BF09AE03126F
:1028230010BF3EAE031210BF46AF031210BFFCAF82
:10283300031210BF9DB1031210BFC2B1031210BF28
:1028430001B2031210BF73B2031210BF57B30312C6
:1028530010BF24B4031210BF5AB6031210BFCBB675
:10286300031210BF0BB7031210BF6CB7031210BFD4
:102873002FBB031210BF1EBC031210BF05BD0312F2
:1028830010BF7DBD031210BF3FBE031210BF3DC07A
:10289300031210BF55C0031210BF69C0031210BF4B
:1028A300A1C0031210BFCFC0031210BF56C2031240
:1028B30010BF61C3031210BFB3C3031210BF14C40C
:1028C300031210BFC6C4031210BFEDC4031210BF1E
:1028D300D1C5031210BF82C6031210BF71C8031201
:1028E30010BFA6C8031210BF0EC9031210BF3DCA02
:1028F300031210BFEFCA031210BF20CB031210BF85
:1029030038CB031210BFC7CB031210BF7BCE031209
:1029130010BF53D0031210BF6FD0031210BF8BD060
:10292300031210BF59D1031210BF3DD5031210BFBC
:10293300A08A011210BFD88A011210BFB68F0112EC
:1029430010BFFC8F011210BF4991011210BFB49147
:10295300011210BF3D93011210BF4D96011210BF1B
:102963006897011210BF7AA1011210BF0DA20112C4
:1029730010BF5FA5011210BF5BA6011210BFB6A660
:10298300011210BF00A8011210BFEEA8011210BF60
:102993008AAB011210BFFEAC011210BF81AD011250
:1029A30010BF84AD011210BFF9AD011210BF03AE09
:1029B300011210BF10AE011210BF3BAE011210BFC7
:1029C300EBAE011210BFE4AF011210BF8FB00112C2
:1029D30010BFADB0011210BFC6B0011210BFEFB0EF
:1029E300011210BF11B1011210BF66B3011210BF63
:1029F3002BB4011210BF70B4011210BFEFB4011257
:102A030010BF9BB5011210BFCDB5011210BF21B687
:102A1300011210BF5CB6011210BFA3B6011210BFA2
:102A2300F3B6011210BFF8B6011210BF4CB7011272
:102A330010BF78B7011210BF61B8011210BFB2B84E
:102A4300011210BF12B9011210BF6CB9011210BFED
:102A530007BA011210BF46BD011210BF58BE0112C2
:102A630010BFD2BF011210BFE2C2011210BF80C358
:102A7300011210BF76C6011210BF35C7011210BF75
:102A830079C7011210BF24C9011210BF38C901123E
:102A930010BF42C9011210BF4CC9011210BF58C95F
:102AA300011210BF7DC9011210BF56CB011210BF16
:102AB300ABCB011210BFB5CB011210BFBFCB0112BC
:102AC30010BF34CC011210BF83CC011210BF94CDC0
:102AD300011210BFE1CD011210BFEECE011210BFE3
:102AE30032CF011210BFD8CF011210BFCBD00112C9
:102AF30010BF91D1011210BFB4D2011210BFD2D3B3
:102B0300011210BFBAD4011210BFD2D4011210BFE8
:102B130029D5011210BF33D5011210BF3DD50112C3
:102B230010BF48D5011210BF66D5011210BFAED534
:102B3300011210BF10D6011210BF37D6011210BFF9
:102B430049D6011210BFE4D6011210BF19D70112E2
:102B530010BF00D8011210BF45D8011210BF2BD9E6
:102B6300011210BF52D9011210BFD5D9011210BFE3
:102B730046DA011210BFCFDB011210BFFBDC0112DA
:102B830010BFBEDD011210BF86DE011210BF10DFC1
:102B9300011210BF38E0011210BFDAE0011210BFBA
:102BA30055E1011210BF11E2011210BF5BE20112E5
:102BB30010BFB5E2011210BF8DE3011210BFB0E3E5
:102BC300011210BF63E4011210BF85E4011210BFAC
:102BD300EEE4011210BF04E7011210BFFCE701127B
:102BE30010BFC0E8011210BFF2EA011210BF3CEBA4
:102BF300011210BF8CEB011210BFF0EB011210BFDA
:102C030052EC011210BF80EC011210BFA4EC0112B0
:102C130010BFD9EC011210BF0AED011210BF3DED38
:102C2300011210BF8DED011210BFE0ED011210BFB4
:102C330005EF011210BFA5F0011210BF00F1011240
:102C430010BF29F1011210BFB6F1011210BF24F217
:102C5300011210BF32F2011210BF56F2011210BF5F
:102C6300ABF2011210BFC6F2011210BF78F30112CA
:102C730010BFB0F3011210BFF3F3011210BF56F4EB
:102C8300011210BF58F6011210BF82F6011210BFD5
:102C930079F7011210BF83F8011210BF33F9011243
:102CA30010BFE773001210BF1F74001210BF4074EF
:102CB300001210BF8274001210BFE474001210BF20
:102CC300EE74001210BFFE74001210BF39750012AB
:102CD30010BF1979001210BF067B001210BFEC7CE5
:102CE300001210BF837D001210BF257E001210BF9B
:102CF300D839001210BF833A001210BF313B0012C3
:102D030010BF373C001210BF573C001210BF803D6C
:102D1300001210BF3B3F001210BFAE3F001210BFA6
:102D23005240001210BF5E41001210BFC941001291
:102D330010BF0542001210BF4842001210BF834269
:102D4300001210BFC542001210BF5A43001210BF39
:102D5300D643001210BFA044001210BF7D450012DD
:102D630010BF1546001210BF2F46001210BF5F465A
:102D7300001210BF9046001210BF5647001210BF3A
:102D83006647001210BFB547001210BFC2470012BA
:102D930010BFCB47001210BF4948001210BFA5480F
:102DA300001210BFF048001210BF0B49001210BFF1
:102DB3003649001210BF5349001210BF5F49001279
:102DC30010BFF64A001210BF0F4B001210BF944BF6
:102DD300001210BFA74B001210BFC64B001210BF4A
:102DE3006A4C001210BFEB4D001210BF9E4F001231
:102DF30010BF3450001210BF3750001210BFA7503D
:102E0300001210BFC550001210BF5C51001210BF5A
:102E1300A451001210BFA751001210BF6D5200122F
:102E230010BFDA52001210BF0053001210BF8B53B1
:102E3300001210BFA953001210BFEF53001210BFAE
:102E4300A354001210BFED54001210BF1C55001202
:102E530010BF7955001210BFAE55001210BFDA55DE
:102E6300001210BFE855001210BF3556001210BFF4
:102E7300A556001210BFEE56001210BF3A570012AB
:102E830010BF6657001210BF7157001210BF8F5743
:102E9300001210BF7A58001210BF8458001210BFDE
:102EA300BF58001210BFCF58001210BF2359001291
:102EB30010BF3759001210BF665A001210BF7B5A59
:102EC300001210BF095B001210BF4E5B001210BF4F
:102ED300DA5B001210BFE55B001210BF275D001222
:102EE30010BF425D001210BF8E5D001210BFFD5D6A
:102EF300001210BF365E001210BF505E001210BFEA
:102F0300B05E001210BF4F5F001210BF9A5F001235
:102F130010BF6A62001210BF1C63001210BF8963E6
:102F2300001210BFC965001210BFE165001210BF87
:102F3300E465001210BFF065001210BF04660012B2
:102F430010BF0C66001210BF3F66001210BF42672D
:102F5300001210BFCF67001210BF3F68001210BFEE
:102F6300C168001210BF8269001210BFA16900126C
:102F730010BF426A001210BF9F6A001210BFA26AFC
:102F8300001210BF166B001210BF656C001210BF49
:102F93006B6D001210BFF66D001210BF116F00129F
:102FA30010BFD96F001210BF0A70001210BF2D702E
:102FB300001210BF3670001210BF6570001210BFF0
:102FC300F570001210BFAB71001210BF2072001217
:102FD30010BFC772001210BF3C73001210BF73738F
:102FE300001210BFB173001210BF91B4041210BFCE
:102FF30044F7051210BFA7F6051210BF9DF6051280
:1030030010BF47F6051210BF2CF6051210BF8BF543
:10301300051210BF8FF4051210BFBEF3051210BFC7
:10302300C7F1051210BF1AF1051210BFACF005125B
:1030330010BF64B4041210BFE8E3021210BFF2FB26
:10304300041210BFE8FB041210BF27AE041210BF16
:1030530068AD041210BF7DFB041210BFD1F9041236
:1030630010BF8FF9041210BFB7F8041210BFA1F8F4
:10307300041210BF62F8041210BFBDF7041210BF90
:10308300A8F4041210BF7BF2041210BF4BF2041217
:1030930010BFEFF1041210BF89F1041210BF48F101
:1030A300041210BF7AF0041210BF15F0041210BFFF
:1030B300B9EF041210BF5CEF041210BFFAED041253
:1030C30010BF97ED041210BFE1EC041210BFDCEC4B
:1030D300041210BFC5EC041210BFC5AC041210BF1C
:1030E30090EC041210BF84AC041210BF65AC041240
:1030F30010BF32AC041210BF1DAC041210BFF2ABF0
:10310300041210BF0DFA051210BFB3E9041210BF69
:10311300B0E9041210BF6EE9041210BF5BE9041298
:1031230010BFD5F9051210BF50E9041210BF2CE9E6
:10313300041210BF46E7041210BFC5E6041210BF05
:10314300CDB3041210BF81E6041210BF9FEE02122A
:1031530010BF55E6041210BF1EE6051210BFE0E5CE
:10316300051210BFB3E5051210BF7FE5051210BFAE
:103173001EE5051210BF06E5051210BFE2E40512B5
:1031830010BFABE1051210BF77DF051210BF5EDD84
:10319300051210BFEDDC051210BF9CDC051210BF39
:1031A30056DC051210BFBFDB051210BF7EF90512F6
:1031B30010BFB9E00200000080FBE4738700010048
:1031C300B31C35000400791C250002007D1C260079
:1031D30002007F1C27000200811C280001008B1CB9
:1031E300290001008C1C840004003D1986000100A5
:1031F300B91B2A0001008D1C2B0001008E1C2C0022
:103203000100931C2D0008004B192E000100941C93
:103213002F000100951C30000100961C31000100B5
:10322300971C320001005319330001005419340074
:103233000100981C36000100551938000100991C43
:1032430039000100921C83000200B11C63000100DD
:103253006019640001008F1C65000100901C6D0063
:103263000100611971000800431966000100B01CD8
:1032730043000100A11C44000200A21C4500010000
:10328300A41C46000200A51C47000800581948006A
:103293000100A71C4B000100A81C04000100B41C82
:1032A300A1000100B71C37000100B61C8800010013
:1032B300B51C3C00010056193D0001009A1C490051
:1032C3000200A91C6700010062194D000200AB1C3B
:1032D3004E000100AD1C4F000200AE1C3E00010079
:1032E300A01C510001009C1C520001009D1C5300B6
:1032F30001009F1C5400010057190000000000004A
:103303000000000020019F8A0000010020019A8A2A
:103313000000020020019C8A0000030020019E8A15
:10332300000004004201178900000500420194884F
:1033330000000600420138880000070030019D8A22
:1033430000000040420138880000FDFF2101968AF9
:10335300010020002005C11B010021002005C21B24
:10336300010003F02127311C00040000210513187C
:103373000204000029050B18020401F02127211C77
:10338300020402F02127291C0304000029050D185B
:103393000304100029050F180304140028051A1C40
:1033A300030401F02127231C030402F021272B1C13
:1033B3000504000021051118050401F02127251C2F
:1033C300050402F021272D1C0001363601010001FE
:1033D30002010001030100010401060605020000C9
:1033E300070100340801000F090401010D0100FF6A
:1033F3000E08000017020000190100FF1A01000166
:103403001B0100FE1C0100081D0200001F0100013A
:1034130020010001210200002301000F240200000B
:103423002601000127010008280200FF2A010007E6
:103433002B0102402C0100002D0100012E0100018F
:103443002F0100FF30010B1D310800003A01000875
:103453003B01000F3C0100013D0100FF3E04000061
:1034630042040000460400004A0400004E04000029
:1034730052040000560400005A04000001037103C3
:1034830001030103010301030103220302030103F7
:103493001003000300030003000300030003000301
:1034A300420300032403060300030003040312037F
:1034B3002503230325032303040304030003000359
:1034C30000034403000300032303000365032100F7
:1034D3003503810300030503000300030003000316
:1034E300250323030304710402046004110470041C
:1034F300020402040104020410046104000414041D
:103503006304730472046204430400041304060492
:103513000004000404041204000400040004000472
:103523005104640000040004000444040004000483
:1035330000040004650400043504810464000504E8
:1035430000048304000403027102300160021102CB
:1035530070020102020202028002100261023A00BA
:103563004100630273027202620243020002130209
:1035730038000002000204021202000200020002EC
:10358300000204020402370037003C024402000236
:1035930039000002000265020002350281020002C6
:1035A300050282028302000201017101010101018E
:1035B30011010101310101010101800110016101CA
:1035C3003B001400630173017201620143010001B6
:1035D300130106013D013500040112010001000140
:1035E3000001000104010401330133013C014401E2
:1035F300320136000001000165010001350081013F
:103603000001050182018301000103007100300103
:10361300600011007000310220035004800010008C
:103623006100000014006300730072006200430035
:103633000000130006000000000004001200000058
:1036430000000000000004000400370037003C02C3
:103653004400000000000000000065000000350089
:103663008100000005000000830000003600010017
:10367300060000000F000000000000000000000032
:10368300000003FFFF00000403FFFF0000FFFF0F24
:10369300F4010005C4040320000100000B00000036
:1036A300000000000003010F000000000000000004
:1036B3000000000000000000000000000000000007
:1036C30000000000000000000000D21DFC1DD81DFA
:1036D3000C1DDE1D021EDE1D0E1EE41D0C1DDE1D57
:1036E300021EEA1D0C1D00000000F01D0C1D000051
:1036F300000000000000F61D0C1D0000000000008B
:1037030000000000000000000000000000000000B6
:1037130000000000000000000000000000000000A6
:103723000000000000001300C6201F00CC201F80F3
:10373300D22000003E2101003E21020048200280E9
:10374300422003004E200400542004805A20050028
:10375300602006006C2030008A2031008420320073
:10376300962033009C203500A2203400A820360088
:10377300AE201100BA201400C02015007E20FFFFE8
:1037830000000A000000020000000400000008001E
:103793000000100000002000000040000000800036
:1037A3000000000100000002000000040000000807
:1037B3000000001000000020000000400000016C29
:1037C30029069C290896290BBA2910BA26027229C0
:1037D300058A290778290C54290D602964A424FF3C
:1037E30000000004000021051518000401F0212742
:1037F300271C000400F021271F1C000402F02127CE
:103803002F1C030003000400080010001F003E00EB
:103813007B00F600EC01D703AF075D0FB91E713DC6
:10382300000007ECFDFDFDECDCDCCCBCACAC9C9CEF
:103833008C7C7C6C6C5C5C5C4C4C3C3C2C2C1C1C75
:1038430003EAF5E5D5D5C5B5A59595858575756562
:1038530065555545453535252515150506040000DF
:1038630018051A180604100021271B1C0604110052
:1038730021271D1C00160F00000B150B020002224E
:103883000F3300000E0F00000000000000000000D6
:103893000000000000005A6967426565416C6C696D
:1038A300616E63653039D0D1D2D3D4D5D6D7D8D9C8
:1038B300DADBDCDDDEDF303017181921301B1D1F8A
:1038C3003000034D4C4651181A2505020C0E020B0D
:1038D300040B0A0708000F000119161816161823FF
:1038E3000300303016181920231A1C1E30003C40E8
:1038F300423A3F3F392F47300204020101010109D7
:10390300020F00550010051818E803000000BE045C
:103913000A010000000000E8037F00030024000FF9
:10392300100400090209080503011903043C1E1EC3
:103933000C030503FF0A0C08150810080C2800E403
:10394300F0A3F0A3F0A322123942F022901AAB1293
:103953004F4E122D5C2212395D22E0F508E4F50981
:10396300F50AF50B22E824FBF582E934FFF58322FF
:10397300E82411F582E439F583E022F583123984D2
:1039830022E0F508A3E0F50922122FD874041210DF
:10399300EF7F08020EB27401F090056FE0640F220E
:1039A30074091210EF7F04020EB2EA2413FAE43F03
:1039B300FB122F06E9227905122F12740622A3A304
:1039C300E024F5C3941322122FE490058F126F0C99
:1039D3007A147B0022C082C083901A8A7450F0A3A9
:1039E300742DF0A37462F0A3742DF0901A8E7438C2
:1039F300F0A3742DF0A37432F0A3742DF0A3746EAE
:103A0300F0A3742DF0A37474F0A3742DF0A3746861
:103A1300F0A3742DF0A37420F0A3742DF0901A9AE0
:103A23007444F0A3742DF0A3744AF0A3742DF0A38F
:103A3300743EF0A3742DF0A3747AF0A3742DF09068
:103A43001AAB12591D6009901AAB124F4A121BF898
:103A5300901AA812526474081265B9A3F0901B540B
:103A6300F0901AADF07C0BFDF97AAE7B1A121B268F
:103A73007C0B7D0079007AB97B1A121B260250BE9B
:103A830074F7120B5174F71211A2EAFEEBFF123B0B
:103A93001674051253827403F0123C2D12536424DE
:103AA30030FCE43FFD8C82123B0E123B2260081275
:103AB300433B74FFF0A3F0EE242EE43F1C1CFD8C6B
:103AC30082F583A3E0C0E08A828B83125016D0E094
:103AD300123B22888289831258512403F0EE124349
:103AE300451214357403F0900584120F3B740212CF
:103AF3001182123F0F1210EFE9F5087007EEFAEF8B
:103B0300FB122DECA9087409024354F583E0888263
:103B1300898322EA123B1B22125A603FF583221249
:103B23006839125370E8F0A3E9126B10E02274F0C5
:103B3300120B51EAFEEBFF8C0C8D0D890B123C2D01
:103B4300F5831253787410121435E0F508A3123B71
:103B530010F0E824FFF582E9123F21E508F0E8249C
:103B6300FEF582E9123F21E50BF0900589E0C0E004
:103B7300E824FDF582E9123F21D0E0F0900588E0CA
:103B8300C0E0E824FCF582E9123F21D0E0F0741292
:103B9300121435123980123968E509F0E824FAF86D
:103BA300E934FFF98882F583E508F0EE2404FCE4A8
:103BB3003FFD88088A828B83E0F50E8C828D83E03B
:103BC300250EC3950812683912519E850C82850D06
:103BD30083A3A3A3A3A3A3A3A3E064037009EE1287
:103BE3005352F0A3E48003123F26123F2E7409F0D0
:103BF3007508AE75091A750A00780812110E12635A
:103C0300031210EF7508FF7509FF7808121112AC43
:103C13000CAD0D123F0F1210EFE9F5087007EEFA25
:103C2300EFFB122DECA908023994EA2402FAE43FCF
:103C3300FB8A8222C082C083901ACAE0C3940840E0
:103C43000474078001E08A828B83F033333354F8A2
:103C5300F90250BE74F0120B518A088B09890A8C41
:103C63000E8D0F750C00A2AFE433F50BC2AF901AA3
:103C7300C48045123D59503D123D7364037036E5CF
:103C83000824F9F508E50934FFF5098E828F83A32B
:103C9300A3E02405FCA3E03400FDAA08AB09121C31
:103CA300E2E50824FFF508E50934FFF5097410255A
:103CB3000CF50C150A1241481272C1E50A6004EEB4
:103CC3004F70B0E50BA2E092AFA2AFE433F50BC2A5
:103CD300AF901AC4803E12582A8882F583124A9EF6
:103CE300850882850983F08A828983123D6AA3A3AA
:103CF300E0C0E0E50824FFF582E509123F21D0E0AA
:103D0300F0E50824FEF508E50934FFF509050C156F
:103D13000A124148123F9C6021123D73640270F104
:103D2300123D59EE40B0125499A2E550E4850E823B
:103D3300850F837401F0E50A70D7E50BA2E092AF1B
:103D4300850882850983E50CF0E50824FFFAE50977
:103D530034FFFB023994123D5FA2E622EE2411F5F3
:103D630082E43FF583E022123D6E2212586FA322B4
:103D73008E828F83A3A312501A125F462274F0120D
:103D83000B5174F31211A27403121435E9F0740287
:103D9300121435EAF08B0B852182852283E4F0042B
:103DA30012117A122D02E9F890056EE0292437F5F5
:103DB30008FA7B00121B3E8A0C8B0DAE0CAF0DEA8A
:103DC3004F7003023F06EA2402F50EE43FF50FA805
:103DD30008EA28F8E43BF9850E82850F8312489A96
:103DE30090056EE0F9FAC3E49AFA95E0FB850E823A
:103DF300850F83E02AF50CA3E03BF50D90056C12CB
:103E03003980750A00780812110EE9FC7D00AA0CAE
:103E1300AB0D1252D41210EFAC21AD227401121467
:103E230035E0F9E50C24FFFAE50D34FFFB122D080C
:103E33008A828B83E4F0E50BC454F0F9901B55E0C0
:103E4300C4333354C0F8900568E0A2E0E43313139D
:103E53004849440FC0E0EA24FFF582EB123F21D02A
:103E6300E0F0EA24FEF50CEB34FFF50D74031214B5
:103E730035E0F87402121435E0C454F048850C821E
:103E8300850D83F0A80C850E82850F831265862A23
:103E9300C3988E828F83A3A3A3A3F0850E82850F7D
:103EA30083E8F0A3E50DF0123F26123F2EE4F074F1
:103EB3000C121435E4F07508B975091A7808121153
:103EC3000E1263031210EF852182852283E06009BD
:103ED300EE240E12549B4408F0122EF4E9F9E4F593
:103EE30008F50978081211127406121182123F1193
:103EF3001210EFE97006EEFAEFFB800BEEFAEFFB20
:103F0300121B447A007B00740D0239917903EEFA97
:103F1300EFFB122F0C740222EE24FFF582EF34FF25
:103F2300F58322EE123B1BE4F0A322F0123F33226F
:103F3300EE1262263FF5832274F2120B518A0C8B28
:103F43000DA2AFE433F50AC2AF75080075090090FE
:103F53001AC4802C1241585024850C82850D83A3EA
:103F6300A31263168E828F83A3A3124F4A122EFAD3
:103F7300E9600A124153C2E6F08E088F09124148E4
:103F8300123F9C70CFE50845096006124035D2E622
:103F9300F0E50AA2E092AF800DE0FEA3E0FFEE4F52
:103FA3002274021210EF7F06020EB274F0120B514C
:103FB3008A0E8B0F8C0C8D0D750A00A2AFE433F5BE
:103FC3000BC2AF7E007F00901AC48010AE08AF0909
:103FD30012402D125499D2E7F0124F28124F3C6031
:103FE30034124035A2E750F1850882850983A3A3E3
:103FF300120F3BAC0CAD0DAA0EAB0F122F007402C7
:104003001210EFE960D3EE4F60C21243CF70061275
:104013004047D2E4F0E50BA2E092AFEE4F60061208
:104023002DE6750A01A90A023994123D5FD2E4F024
:10403300EE22E5081262403509F583E022AA82AB3D
:1040430083121CE28E828F83A3A312501AE0227480
:10405300F2120B5174FE1211A2750C00750D00853E
:104063002182852283E4F0A3F0A2AF33F50AC2AF25
:10407300901AC41272C1802BEE24FBF582EF34FF39
:1040830012397E780C1211121241361210EFEEFC27
:10409300EFFDAA21AB22121B62AE08AF09901ACA28
:1040A300E014F0EE4F602B124158501DEE240BF834
:1040B300E43FF98882F583E024FFF0A3E034FFF0C6
:1040C3008882898312591D60AF8E0C8F0D1241486F
:1040D30080A1E50AA2E092AF901ACAE0602C900595
:1040E3006FE0640F6006901B54E0701E7AA27B1A87
:1040F300122FE4908A8C120F377AA27B1A12514640
:104103001210EF800574F0125027AA21AB22121B64
:10411300688A088B09AE08AF09EA4F6013122D14A1
:10412300124153A2E28E828F83A350D974E980D7C0
:10413300023FA4EEFCEFFD7AC47B1A121B747402D7
:10414300228E0A8F0BEE24FBF582EF34FFF58322D8
:10415300EE123D6022123D5FA2E72274F7120B516B
:10416300EAFEEBFF122D141250131231BDE9640164
:1041730090058B700AE02401F8A3E0340080031259
:104183004F99F912569B12519E901ACAE0701F90D4
:10419300056FE0640F70177AA27B1A122FE4908ADE
:1041A3008C120F377AA27B1A1251461210EFA8A86D
:1041B300C2AF901ACAE004F0E8A2E78004E508A2BF
:1041C300E092AF0255A974F7120B51EAFEEBFFEA36
:1041D3001241FFF0122D14EEFCEFFD7AC47B1A128C
:1041E3001B6EA8A8C2AF901ACA124AED90056FE0E1
:1041F300640F70057908122EAC0255A9123D60C2F6
:10420300E42274F7120B5174EA1211A2EAFEEBFFD7
:10421300900568E0602A8521828522837401F0126B
:104223001435E41242BA121435124040C0E0740A45
:10423300121435D0E01265A6740B12143512580609
:10424300741602435474F7120B51EAFEEBFF122C5F
:10425300F6E9F974DC69601E74DD69601974E46958
:10426300601474F369600F74DE69600A74DF696057
:104273000574DB697007EEFAEFFB122EB20255A943
:1042830074F7120B5174EB1211A2EAFEEBFF8521B6
:104293008285228374061242BA121435AA82AB8332
:1042A300121CE2EE2408FCE43FFD740A12143512DA
:1042B30058067415024354F0EA2413FCE43FFD74DA
:1042C300022274F7120B5174F71211A2EAFEEBFFEC
:1042D300EA243012549B605DEA124345121435748C
:1042E30003F0900584120F3B12433B120F3B9005E2
:1042F30097E0F97404121182EEFAEFFB122CFC74AE
:10430300041210EFE9F974DC69602374DD69601E3F
:1043130074E469601974F369601474DE69600F747E
:10432300DF69600A74E869600574DB697007EEFA97
:10433300EFFB122EB2023B09EE242EF582E43FF589
:104343008322126717AA21AB22121CE2740822747B
:10435300031210EF0255A974F2120B518A0C8B0D44
:10436300750A00750B007508E7A2AFE433F509C2BF
:10437300AF901AC48003124144123F9C602512413E
:104383005850F31243CF70EEEE2432124566E068C4
:1043930070E4780A1211121241361210EF901ACA01
:1043A300E014F0E509A2E092AFEE4F6013EEFAEFEE
:1043B300FB122D1479F0EEFAEFFB122EB275080002
:1043C300A908AA0CAB0D122EB2023FA9123F33E08B
:1043D30064012274F4120B5174F71211A2EAFEEB7A
:1043E300FF8A82F583A3E064F370030244748A8234
:1043F3008B83A3E064DF60798A828B83A3E064E824
:10440300606F8A828B83A3E064DB6065122D56E9BB
:10441300F5087055EE240E12549B604D12447E60D5
:1044230048740812143512448D120F3B7508FF753A
:1044330009FF78081211128E828F83A3A3A3A3A36B
:10444300A3A3A3E0F97404121182122CFC740412C6
:1044530010EFE9F50874F369600F74DF69600A749B
:10446300E869600574DB69700F8E828F83A3E508AA
:10447300F0EEFAEFFB122D620239A3EE240FFAE4F9
:104483003FFB7909122D98EA4B227402125D0C74DA
:10449300FFF0A312449A2212585AA3A32274F112D2
:1044A3000B51EAFEEBFF7508008A82F583A3A3A3F1
:1044B300A3A3A31239C140037508E88A828B83A39F
:1044C300A3A3A3A3A3A3A3A3A3E0C394104005752D
:1044D30008E880138A828B83A3A3A3A3A3A3A3A324
:1044E300A3A3E0640F600B901B31E05408700375C5
:1044F30008E8EA240B124566A3A3A3A3A3A3A3A3DB
:10450300E0C398500DEA240B12549B640F600375AB
:1045130008E8900588E0F47003A3E0F470037508DD
:10452300EC7A237B00121BF28B0BA90B901AAB12B4
:10453300457560278E828F83A3A3A982AA83890CE2
:104543008A0D750E00780C12110E7C237D00901AD3
:10455300ABE0FA1252D41210EF800375081AA908BF
:104563000262FEF582E43FF583E0F88A828B83A33F
:10457300A322EAF0A3EBF0EA492274F5120B51EA05
:10458300FEEBFF8A82F583A3A3A3A3A3A3A3A3E0C4
:1045930090056F12460DE090058AF0EA240B125441
:1045A3009B90056A12460DA3E0901B55F0F9121873
:1045B300BC901B55E0600BEE240412548D240612AC
:1045C3004603901B541239996004740180027400ED
:1045D300901AAD126C5112110E7C0B7D007AAE7BDA
:1045E3001A1252D41210EFEE2418F508E43FF5091D
:1045F300780812110E7C0B7D007AB97B1A0252C126
:10460300FAE43FFB79E11218A422126C3BA3A3A3A3
:10461300A32274F7120B51EAFEEBFF8A82F583A300
:10462300E0700312394F1267C20255A974F7120BD7
:1046330051EAFEEBFF901AAB12591D6010901AABB2
:10464300124F4A901AABE4F0A3F0121BF88E828F3C
:1046530083740812502E1223660255A974F6120BA6
:1046630051901B54E06010901AADE0700A12467D21
:10467300EA4B6003122DEC0268BC90056AE0FB90E4
:10468300058AE0FA90056FE0F9122D0E2274F412F8
:104693000B5174E71211A2EAFEEBFF750B018A823C
:1046A300F583A3A3A3A3A3A3A3E0A2E25069EA24EF
:1046B3002BF582E43F126314EA2413FAE43FFB125E
:1046C3002D1AE9705290896BE064017005750B0037
:1046D300804512474F12110E7C0B7D00741112118D
:1046E3007A1252D41210EF122EF4E9FA740E121148
:1046F3007288088909780812111275083075090043
:104703007808121112EE12656F120F3B12670979C6
:10471300011239BB1210EF8521828522837410F0B8
:104723001267097402121435AA82AB83121CD6EEE7
:10473300242B126F02740B12143512519E740D1236
:104743001435E50B12697B74190239A5EE2408129E
:104753006C5922C082C083901B55E06003122F6600
:104763000250BEC082C083901B4C748AF0A3741A9B
:10477300F0A3748EF0A3741AF0A3749AF0A3741ABE
:10478300F0901D3574E7F0A37434F0901B3674F089
:10479300F0A3742CF0901ACF7426F0A3742DF0902C
:1047A3001AD1742CF0A3742DF0901B31E044020253
:1047B3004BC2C082C083EAFCEBFD79030258C9C037
:1047C30082C0837908026A3CC082C08374FE1211DE
:1047D300A2901AD774D4F0A3742DF0901AD974CE82
:1047E300F0A3742DF080077AC47B1A124827901A1D
:1047F300C412591D70F1901AC612591D60097AC668
:104803007B1A12482780EF901AC4E4F0A3F0901AA1
:10481300CAF0A3F0A3F0901AE57410F0A3742EF07D
:104823007402801C121B68852182852283EAF0A30F
:10483300EB12483B122EE222F0AA21AB2222741182
:104843001210EF0250BE74F6120B51E9FF74F029F7
:10485300F582E43438F583E493FEFA7B00121B3EC1
:10486300EA4B6007EA2E12489780267A027B0012F1
:104873001B3EEA4B601774B92FF582E43438F58395
:10488300E4938A828B83F0A3741A124C607A007BC0
:10489300000268BC12518DE8126836A3A3A3A3E4F7
:1048A300F022E9FC740629F8EAA2E0501EE875F04C
:1048B3000A84E5F0F96014740A28C399F8E9C394EB
:1048C300054004740A28F8740B28F8ECC3941340C9
:1048D30004791480027906E82979002409F8500143
:1048E300097A0A7B00120989E8F90210BCC082C068
:1048F30083901B31E05402600A12236CE96004794F
:1049030001800279000250BEC082C083901B31E057
:1049130054026014901ACAE0700A12591A600912FC
:10492300493050047901800279000250BE12397374
:10493300A2E722C082C083908968E0F8901ACCE095
:10494300C3985005121B3E80047A007B000250BEC0
:10495300C082C083122EE279000250BEC082C0839F
:1049630074FE1211A2852182852283EAF0A3EB1241
:104973004AC9A3A3A3A3A3E0600A14605724FE605B
:104983005A024A3990056FE0640F6012122EB8E99B
:10499300700C124F44901AD31250161231BD900569
:1049A30097E0C0E085218285228312583DD0E01232
:1049B3004AC9741412625AFCA3E0FD7AC67B1A1228
:1049C3001B62A8A8C2AF901ACC124AED7920122E0E
:1049D300AC024823124D97741580D9124D97A3A3A7
:1049E300A3A3E06051124D9712404BC0E085218292
:1049F300852283E02406F582E43BF583D0E012624E
:104A03005A2402F8A3E03400F98882F583E02401F4
:104A1300FAA3E03400FB88828983EAF0A3EB1262F5
:104A23005A124DD78521828522836013124A9E60D4
:104A330005124AB04048AA21AB22122EE2809212FC
:104A43004A9E60F2124AB05021124ABDFA85218271
:104A5300852283A3E0C82406124D93F874FA125AF0
:104A6300523438F583E4936A601485218285228366
:104A7300124A9E640870BF124ABD640870B8124A95
:104A8300BD14124AD1240AC0E085218285228312F3
:104A93005016D0E0124AD1040249B7124AA2221298
:104AA3004F99C82406F582E438F583E022852182F4
:104AB300852283124AA2C3940A22852182852283F6
:104AC300123D6EA3E022124ADBF583888222124A4A
:104AD300DBC82406124DC122F08521828522831270
:104AE3004F9922A8A8C2AF901ACBE004F0E8A2E73E
:104AF30092AF22C082C083901ADB12591D60081244
:104B03004D9E1231BD800279000250BE74F7120B24
:104B130051EAFEEBFFEA123F34740112514CF8A341
:104B2300E0F9123B1612519EEA243512549BC0E061
:104B3300EA2413F582E43FF583D0E0F0EA24361249
:104B4300549BC0E0EA2414F582E43FF583D0E0F0FF
:104B5300EA243812549BC0E0EA2418F582E43FF5B6
:104B630083D0E0F0EA242FF582E43FF583120F3B74
:104B7300126716EA243112549BF9123F151210EFF3
:104B8300E9F5087007EEFAEFFB122DECA9080255C0
:104B9300A9C082C083122EB8E9600479208002790B
:104BA300010250BEC082C083EA2411124BB8D2E086
:104BB300800DEA240DF582E43BF583E022F0A3F0B7
:104BC3000250BEC082C083124BB564017011124CF7
:104BD3005A400C8A828B83A3E0F9122EB2806612AC
:104BE3004C4BA2E650128A828B83A3E0F9901AD52C
:104BF3001250161231BD804D124BB56401700D1267
:104C03004C5A50088A828B83743080368A828B8315
:104C1300A3E0641B8A828B83700474228024A3E044
:104C2300700D124BB5F874E5125A523438800B12DA
:104C33004BB5F874B9125A523438F583E4938A8227
:104C43008B83124C600250BE124C4F22EA2410F5A3
:104C530082E43BF583E022124C4FA2E322F0901B47
:104C63002CE0F9121B4A2274F7120B51E9FE125978
:104C73001A7003024D90EE6014741B6E701AE812E2
:104C8300622639F583E064057003024D68901ACEFD
:104C9300124D9EA3E4024D6F74E96E7068E824120E
:104CA300F582E439F583E0700B122372E960051293
:104CB3004DE1606179EE121826901ACD124DB8902D
:104CC3001ACD603A124DE4901ACD700B124DB81400
:104CD300F01219DC024D90124DD6C2E7124F7F2419
:104CE3000D124D9364037009124DB1124F35D2E288
:104CF300F079ED121826124DC91231BD8078124D8C
:104D0300A474E9806774E16E703E122372E9605502
:104D1300124DE17050900591E0C0E0124DB12412A4
:104D2300F582E438F583D0E0F0900580E0C0E090B0
:104D33001ACD124DAD124DADD0E0F0900580E004D8
:104D4300F079011219C48045741C6E7018901ACD45
:104D5300124F4A901ADD1250161231BD901ACDE44B
:104D6300F0A3F08028901ACD124DA4EEF0901ACD46
:104D7300124F4A122DDA124F60E054806003126A18
:104D83002B901ACDE4F0A3F07910122EAC0255A9A2
:104D9300124DC122852182852283A3E0F583888277
:104DA30022124DA82212501EA32212586B22901ACF
:104DB300CD12584C2212584C2412124DC122F582A6
:104DC300E438F583E022901ACD124F4E901AD11297
:104DD300501A22E0F8A3E0C82410124DC122901A01
:104DE300CD124F67E054042274F4120B51750A007C
:104DF300750B00A2AFE433FEC2AF12591A6003026F
:104E03004EDE1250131231BDE94410F8901AC480DB
:104E13000985080A85090B124F28124F3C700302BB
:104E23004EDE124035586870E8780A121112AC0849
:104E3300AD0912413A1210EF901ACDE508F0A3E53F
:104E430009124F7F124F35A2E75003024EE5901A25
:104E5300CBE014F0EEA2E092AF901ACDE0240EF86E
:104E6300A3E03400F9E8FEE9FF8882F583124F4A94
:104E7300901ACD124AC3F9122D9EE9901AC81265F1
:104E8300B98E828F83E054806018124DB1241312BF
:104E93004D93F91218E0124DB12414124D93F912E7
:104EA30018D4124F60A3E05401605F901AC81259DE
:104EB3001D6045124F766040124F76F87900901AC4
:104EC300C8124F4A120991E8C0E0124F54D0E012C1
:104ED3004F84C3941340117402800FEEA2E092AF8B
:104EE3008037901ACA024E547400C0E0901ACEE084
:104EF300C8124F1FD0E0800D124F547401124F7F20
:104F0300124F1F7401F07903800C901ACD124DD605
:104F1300A2E1B3E433F91219C40239A8241AF582C1
:104F2300E438F58322E50824FBF582E50934FFF52F
:104F33008322126240124DC422123984E5084509C6
:104F430022852182852283124F4E22E0FAA3E0FBC1
:104F5300221258492419F582E438F58322901ACD98
:104F6300124F6722124F99C8124F6F22125A60389C
:104F7300F583221258492418124DC122124F91C8A9
:104F830022124F91F5838882A3A3A3A3E022F0907A
:104F93001ACD124F9922E0F8A3E02274F7120B51B5
:104FA300EAFEEBFF122EDC125498A2E3400A1243EE
:104FB300CF70059089668003908967E0F9EEFCEF76
:104FC300FD7AC47B1A121B7AE96038EEFAEFFB9084
:104FD3001AD71250161231BDEE240E12549B5404EC
:104FE3007012124AE6EE123B17A3E05401701E1230
:104FF3002DE68019EEFAEFFB901ACF1250161231FC
:10500300BD800A8E828F83A374F11250270255A9A3
:10501300901AD912501A2212501E22E0F8A3E0F57A
:105023008388822212502E122DDA22F0EEFAEFFB41
:10503300220250B774F7120B51EAFEEBFF7900908E
:105043001B31E05402700CEA243312549B54046065
:105053000279E8901B31E05460700CEA2433125457
:105063009B5402600279E88A828B83A3A3A3A3E003
:10507300F890896CE0C398500279E8EA243112541D
:105083009B700CEA242E12549B700479F5800BE973
:105093007005122DC8E9F9E96007EEFAEFFB122E4D
:1050A300B20255A9C082C0838A828B83740DF01229
:1050B30023668007C082C083122DE6D083D082028C
:1050C30010BC74F4120B51EAFEEBFF8A82F583E401
:1050D300F0A312514C54049089667012E0F8901AB0
:1050E300CBE0C398401279F1122EB20239A8E0F84E
:1050F300901ACAE0C39850EE125152A3E0540160D3
:1051030037EA243712549BC394054033EA243312FD
:10511300549B540570297ADF7B1A122FE4EE24374F
:10512300F582E43FF583123959780812110A7ADFC0
:105133007B1A1251461210EFEEFA125B4380AC79E0
:10514300E880A5122FD8740422F0125152E022EA0B
:105153002433F582E43FF5832274F6120B51E9FE02
:105163002451FAE43400FB121B3EEA4B6015EE8A2D
:10517300828B83A3A3A3A3F0EA245112518D12516E
:105183009E80047A007B000268BCF8E43BF98A82C3
:105193008B83A3A322126F0C901BA9E8F0A3E9F061
:1051A300220250B7C082C083901AE8743AF0A37405
:1051B3002EF0A3746AF0A3742EF0A37440F0A374CA
:1051C3002EF0A37446F0A3742EF0A37464F0A374BA
:1051D3002EF0A37458F0A3742EF0A37452F0A374AA
:1051E3002EF0A37470F0A3742EF0A37476F0A3745E
:1051F3002EF0A3747CF0A3742EF0A37488F0A37430
:105203002EF0A3744CF0A3742EF0A37434F0A374A3
:105213002EF0A3742EF0A3742EF0901B04745EF092
:10522300A3742EF0A37482F0A3742EF0A3749CF0E5
:10523300A3742FF0A3748EF0A3742EF0A37494F0D0
:10524300A3742EF0901B28E4F0901B2BF0901B14FA
:105253001252647402F0901B1D1252647401024BCB
:10526300C274ACF0A3742EF0A32274F5120B517424
:10527300F11211A28521828522837402F074011236
:105283001435E9F060047AFF7BFF740212143512BF
:105293005D0175082075091B750A00780812110E47
:1052A3007C0B7D007407121435AA82AB831252D48F
:1052B3001210EFAA21AB22122366740F800312523D
:1052C300D41210EF7F03020EB27C0B7D007A207B99
:1052D3001B121B1A74032274F7120B5174FD121163
:1052E300A2852182852283740AF07401121435E9A0
:1052F300F07402121435EA12697B02435274F612F7
:105303000B5174F71211A2EAFEEBFFEA1253521289
:1053130053827402F0EA2428FCE43FFDAA21AB2265
:10532300121CD6EE2431125358243312637A12110D
:1053330012740212118279831A1A123F131210EF98
:10534300E9F5087007EEFAEFFB122DEC0268B512CF
:105353003B1B740122F582E43FF583123984125812
:1053630022F583125370E8F0A3E9F0EE221253788A
:105373008A828B8322E024FFF8A3E034FFF922F032
:10538300A3E4F0EA123F342274F0120B51126DEAD7
:105393001213C27808790C1209EA780812110A7AF2
:1053A300177B1B02398C74F4120B5174C61211A2B1
:1053B30090056FE0640F600D852182852283742E32
:1053C300125D2080227A0E7B1B1239CA1209918842
:1053D300088909E4F50AF50B780812110A7A0E7B9D
:1053E3001B1251461210EF743A0239A574F5120BD1
:1053F30051EAFEEBFF8A82F583A3E0F87078EA2492
:105403003012549B64026007E06403600278E8EAA8
:105413002426F582E43FF5831239C3400478E880FB
:1054230058E87052EA2426124603EE243112548DB2
:10543300243012549B6402700EEE2428126F0290E3
:10544300057E12519E801790057E74FEF0A304F032
:10545300EE2428FCE43FFD7A757B05121CE2EE2462
:105463001B12475212110E1252CC1210EFEEFAEF2A
:10547300FB122E28E9F8E8600EE88E828F83A312D0
:10548300671E74171267C80252C7FAE43FFB7950CC
:105493001218A4EE22EE2410F582E43FF583E022F5
:1054A30074F6120B5174F71211A2901B2BE0703794
:1054B3007401F0F912198EAA21AB22122EEE75088F
:1054C3002075091B780812111275080175090078F7
:1054D30008121112900584120F3B74061211827A7E
:1054E300031239B91210EF0268B774F7120B511295
:1054F30056C97004A374EBF0901B2BE0A2E2500397
:10550300C2E2F0E0A2E150051256DA80098E828FE2
:1055130083742A1267C80255A974F4120B5174FEDE
:105523001211A21255CF125815EC852182852283C0
:10553300125864E0F50B7015AA21AB2279531218A7
:10554300A4EE2413FAE43FFB794A1218A412474F3E
:1055530012110E1252CC1210EF124F44A90B122E3D
:105563001C901B2BE0A2E150031256E1901B2BE48D
:10557300F074020239A574F7120B51EAFEEBFF8AAD
:1055830082F583A374EBF0901B2BE0A2E150077A22
:105593000079EB122E22EEFAEFFB122E588007EE63
:1055A300FAEFFB122F5A7F01020EB274F7120B515E
:1055B3001255CF901B28E4F0901B2BF07AFF7BFF52
:1055C3008E828F83A3E0F9122E1C80DA12571A7A87
:1055D300177B1B122FE42274F7120B51EAFEEBFF29
:1055E300122E5280BA74F7120B51125757A3A3A36A
:1055F300E060047400800274EB1256285003C2E288
:10560300F0E0A2E1500512572B8011A2E0500D8E5D
:10561300828F83742AF0A374EB1267C8EEFAEFFB50
:10562300122DFE80818E828F83A3F0901B2BE0A22C
:10563300E22274F6120B51EAFEEBFF901B2BE0D231
:10564300E1F0790112198E8E828F83A3E0703812F4
:105653002EF4E9FAEE240DF508E43FF50978081273
:105663001112750801750900780812111212569B60
:10567300120F3BEE2402FCE43FFD1239B91210EF86
:10568300E98E828F83A3F08E828F83A3E060067AF4
:1056930000F9122E220268BCEE240BF582E43FF5DA
:1056A300832274F7120B511256C97004A374EBF0E2
:1056B300901B2BE0A2E25003C2E2F0E0A2E1500310
:1056C3001256DA0255A9EAFEEBFF79011219948EFC
:1056D300828F83E0642022C2E1F01256E1227A0035
:1056E3008E828F83A3E0F9122E222274F7120B51BC
:1056F30012571A8E828F83A3A3A3A3E060047400BE
:10570300800274EB1256285003C2E2F0E0A2E1508B
:105713000312572B02561FEAFEEBFF79011219946D
:105723007A0E7B1B122FE422C2E1126C4CE0A2E43E
:10573300E433FA1256E32274F7120B5112575774DB
:10574300EB12562D5003C2E2F0E0A2E150031256D1
:10575300DA0255A9EAFEEBFF79011219948E828FC2
:1057630083A32274F7120B5112577C0255A274F7CC
:10577300120B5112577C0255A9EAFEEBFF7A0E7BFE
:105783001B122FE4EEFAEFFB122E7C2274F7120B9E
:105793005174EF1211A2EAFEEBFFEA12670A7A755F
:1057A3007B05121CD0E9605685218285228374090A
:1057B300F0740112143574EFF012581574021214B8
:1057C30035EC125864A3A3E0C0E07404121435D07E
:1057D300E0125851640870158E828F83A3A3125868
:1057E3003DE0C0E07405121435D0E0800674051264
:1057F3001435E41265A67406121435125806741192
:10580300024354AA82AB83122F24AA21AB22122370
:105813006622125822F583125834FCA3E0F922EED3
:1058230012582AFB8882222402F8E43FF9E8FAE9B5
:1058330022124F998882F583E02212584C2407F5EF
:1058430082E438F58322901ACD124F99C822125858
:10585300552212585AE022F08E828F83A3A3A3A36A
:105863002212683612586B2212586F22E0F8A3E016
:10587300F5838882A3A322C082C083122F660250BD
:10588300BEC082C083901B4874E8F0A3741AF0A3CF
:105893007404F0A3741BF0901D2F74ABF0A3743544
:1058A300F0A37449F0A37435F0901B347416F0A37D
:1058B300742EF0901B31E04401024BC2C082C083BE
:1058C300EAFCEBFD7902122ECA0250BE74F6120BEB
:1058D3005174FE1211A2901B2D12591D60077A2DCF
:1058E3007B1B122EE2901B33E4F0900D1B12591D0B
:1058F30060208007AA21AB22122EE2901B2CE0F934
:10590300121B568B09A909852182852283124575AD
:1059130070E274020268B9901ACD126F0CE8492242
:1059230074F7120B51E9FA7B00901B2CE0F9121B60
:10593300800255A974F7120B5174F01211A2EAFCFC
:10594300EBFDE9FE8A828B83E0F874CF125A52345E
:1059530038F583E493C0E07401121435D0E0F064A9
:105963000B700DE98A828B83A3F0122F48025A4DE4
:10597300E07003025A4D640C6003025A3E741A6EBF
:10598300700B7404121435E4F0A3025A3D7404122C
:105993001435125D01EA243212620AC0E074031264
:1059A3001435D0E0126C371213FA74061214351240
:1059B30014068C828D83A3A3A3A3A3A3A3A3A312DF
:1059C3006F08740A121435E8F0A3E9125A57E05429
:1059D300106009852182852283E48013EC2412124E
:1059E300620AF8900591E0C398852182852283F0AD
:1059F300E0C0E0740C121435D0E0F0EC2415126210
:105A03000AC0E0740D121435D0E0F0EC24161262D3
:105A13000AC0E0740E121435D0E0F0EC24171262C1
:105A23000AC0E0740F121435D0E0125A57A3E054A1
:105A330001600874011214357411F07402121435E4
:105A4300EEF0740112117A12236674100243542883
:105A5300F582E422F0EC125A603DF58322240EF520
:105A630082E422C082C083901B33E0640370047914
:105A730001800279000250BE74F7120B51901B3360
:105A8300E0125AF6742D28F582741D39F583125FDE
:105A930088C2E7F0125AFDA3E493FE25E0FCE43349
:105AA300FD742D2CF582741D3D126314EC4D6005BD
:105AB300EE901B33F08A828B83E025E0FCE433FD18
:105AC300E82CF582E93DF583E493FCC4540F25E00B
:105AD300F87442125A52341BF58312591D70051281
:105AE3002F36800CEC540F125AFD1250161231BD92
:105AF3000255A925E0F8E433F92225E0FCE82CF56A
:105B030082E439F5832274F2120B5174FE1211A24E
:105B1300890B8A088B09125BA8125B99601A1265BC
:105B2300B3F50A780812110E125BB5240212630A48
