:020000040000FA
:0600000002135D02085F1F
:03002B000210BC04
:03003300020BDDE0
:0300530002078E13
:03006B00020B92F3
:03007B00020BBDB8
:100083000207F001010000000000F8FF07FFFF0076
:10009300000504000000030001FFFFFFFF004510FF
:1000A30014102700000020FD000206FFFF1E209E03
:1000B3001D00000000000000000000000000000020
:1000C30000000000000000FF3C003C00450032003F
:1000D3000100E8030A000A000A000A000A001E00E1
:1000E3000104010C0002014F8A05E5880204010C9A
:1000F3000002000000023F8A03040107010200001E
:100103000002438A0404010C000200000001558A26
:10011300010400007914000000E8030000FFFFCA97
:10012300140188130000E803000064006400B801B0
:10013300A0BB0D00A0BB0D00020202070401051EB7
:1001430002051E020A0A010108080103B80B028016
:100153003E0102FEFFE8030A050001FFFF020A0158
:100163001401E00100B0423BAAB83F8C906339AA66
:100173000CA33A00941E3C8042633DCFFE753E15AE
:1001830072313FF304353F8096184B000080BF2245
:1001930092D43EDD9B2A3F04000040FFFF7F7FFF98
:1001A300FF7FFF010080341872313F020000000519
:1001B3000301010F03000300030003000300030016
:1001C30003000300030005000A00140028004F0089
:1001D3009E000000043000000000D82E0000000044
:1001E300FF000000FF0012138B60461213A9603D4D
:1001F300E9687008F618F618F618F622748067F79F
:1002030012021D090909748067F7221213A9601DE0
:1002130012138B7005191919801A121249701F12C3
:10022300125DC37003E667331919194007181818CC
:100233002208080874FFF618F618F618F6221212A8
:100243005D6017121429702192F01214177019505F
:100253001720F014080808090909E7F61819E7F642
:100263001819E7F61819E7F62212141760E6E86979
:10027300701F0808E62480F608E436F618547FB4A5
:100283007F0CE654806007F6E418F618F622181877
:1002930022E9C6CC08C6CD08C6CE08C6CFC0E0E862
:1002A300C0E0EAC0E0EBC0E009E9F809E7FA09E7D2
:1002B300FBE6F918E6F8C3EC98ED99EE9AEBC2E782
:1002C300F5F0EFC2E795F0500E600CEBCFFBEACEF2
:1002D300FAE9CDF9E8CCF8EAA2E7D2E7FAEB33FB87
:1002E30013F5F0EEA2E7D2E7FEEF33FFC5F013A25A
:1002F300E730E601B313C5F0C3C0E0C0F07F00C32D
:100303009BFB605E9418600F401D14601AD0E023BD
:10031300F9D0E0F80203EF8AF0E9486003D2F0E491
:10032300AFF0FAF9F8803BEB30E40D89F0EA6003B3
:10033300D2F0E4AFF0F9CAF8EB30E30D88F0EF60E8
:1003430002D2F0AFF0E4CAC9F8EB54076014FBC360
:10035300EA13FAE913F9E813F8EF135002D2E0FFB6
:10036300DBEDD0E0C0E030E739C3E49FFFF5F0EC0C
:1003730098FC42F0ED99FD42F0EE9AFE42F0D0E097
:10038300F9D0E0F8E5F0607AE923F9EE20E742D806
:10039300028067C3EF33FFEC33FCED33FDEE33FE36
:1003A30080EAEC28FCED39FDEE3AFED0E023F9D0EB
:1003B300E0F84002801BC3EE13FEED13FDEC13FCCB
:1003C300EF135002D2E0FF08B800067F7F74FF806E
:1003D3002EEF3350178CF020F00260100CBC000C91
:1003E3000DBD00080EBE000408E860DFE933E81322
:1003F300FFEE2313FE4F4D4C8008E95480FFE4FECB
:10040300FDFCEE33EF33F47004FCFD7E80D0E0FBA3
:10041300D0E0FAD0E0F8D0E0CFC618CEC618CDC6EB
:1004230018CCC6F9221213A9700418181822121333
:100433008B700D74FFF61819F61819F61819F622B1
:10044300E7548066F6121417700F12142970F01413
:10045300F608F608F608F680D1121429700CF6088F
:10046300F608768008E6447F80EC121260700C1266
:10047300124C60BFE65480F6E480BB12124C700548
:1004830019191980A5E869700C763F18768018F65B
:1004930018F6E8F922E6CDC0E018ECC0E0E633CD6B
:1004A30033CDD313F6E719FCE7191933CC33C394CF
:1004B3007F400ECD9D502408E65480F6E418F68064
:1004C3000FF4043D14501408E6447FF6187680E4D4
:1004D30018F618F6D0E0FCD0E0FD22CCD313CCFD07
:1004E30018E4C6CBC0E018E4C6CAC0E00808ED08AB
:1004F300C633E613F618E433C675F003C3CA97CAC6
:1005030009CB97CB199C40047D08802EBD000302C4
:1005130005D116B6FF050606081618C3CA33CACB9B
:1005230033CB33CA27CA09CB37CB193CC37D0880E9
:100533003E187D0820E75CC633C6CA33CACB33CB2B
:1005430033DDF1D5F0EB30E77BCA97CA09CB974A85
:10055300CB199C406F4B7025E620E0218066187D07
:1005630008C3CA97CA09CB97CB199CD3C633C6CA4B
:1005730033CACB33CB3350C9DDE7D5F0E1D3E4C67F
:1005830036C608C636C608C636C608C636C61818DE
:10059300188031C3CA97CA09CB97CB199CB340972C
:1005A300C633C6CA33CACB33CB33DD34D5F02EC6FC
:1005B300A2E0C640C8CA27CA09CB37194A70BECBC6
:1005C3003CB480B90808E63308E633601F181818EE
:1005D300D0E0FAD0E0FBD0E0FCD0E0FD22187D08AB
:1005E300CA27CA09CB37CB193CD3808013F618E44A
:1005F300B67F11F618B6FF0EF618C60470D20808B7
:10060300768080CAF618F618F680C5001213A96022
:100613004F12138B6012E7548066F6121249701161
:10062300121429703B090909F4F618F618F618F69E
:100633002212125D701512141708080860EAE644C6
:100643007FF618768018E4F618F62212141760164F
:100653001214297012E4F608F608F608E65480F638
:1006630009090918181822EAC0E0EBC0E0ECC0E061
:10067300EDC0E0E687F0A4FBACF008E687F0A42C1D
:10068300FCE435F0FA1809E687F0A42C4B600274F9
:1006930001CA35F0FCE433FB09E687F0D2F7A42C5A
:1006A300CB35F0FC1908E687F0A42BCC35F0FBE43E
:1006B30033FD0819E687F0D2E7A42C4ACB35F0CDF9
:1006C3003400FC09E687F0D2E7A42DCC35F0FDE435
:1006D30033FA0918E687F0D2F7A42CCD35F0CA34E3
:1006E30000FC08E687F0D2E7D2F7A42ACC35F07AEB
:1006F3007E20E70B0ACB33CBCD33CDCC33CC33CBFE
:100703003350147004ED30E00ED2F1E4CD3DCDCC86
:100713003CCC3B5005DA05C2F1EB547FC63308E607
:100723003392F0FBE73309E733C39A502D2B70194B
:100733000C0D4C4D70151806E608C333700D20F1EF
:100743000AA2F013F6E418800B4024E4F630F0021A
:10075300768018F618F618F68024D33B14501074DC
:10076300FFA2F013F6187680E418F618F6800FA2AD
:10077300F013F618E63303F618ECF618EDF6D0E0AE
:10078300FDD0E0FCD0E0FBD0E0FA22C0E074F1122F
:100793000C65A2AFE433F509D2AF85A708AFA1EF8B
:1007A3005508FE74105E60061217D475A1EF740825
:1007B3005E60081217DA75A1F78024EFA2E092F0C9
:1007C300E508A2E082F05017906198E0F89006598E
:1007D300E0C398A2D265D0335002E8F075A1FE754C
:1007E3002300E509A2E092AF7F02020CC4C0E074CB
:1007F300F2120C65A2AFE433FED2AF9061A4E0F82D
:10080300759B00E59158540860087591F7121828F4
:100813008023E59158541060087591EF12182E80CB
:1008230014E591A2E092F0E8A2E082F05007E0C262
:10083300E0F01219849061A3E0F8E5E958540460EC
:100843000E12195A75E9FB906193E0A2E640F27526
:100853002300EEA2E092AF7F01020CC4C0E074F269
:10086300120C65A2AFE433FED2AF9061A5E0F8E5C8
:10087300BF585404600675BFFB12199C80D112083F
:10088300D630F04312091B803E8A088B098C0A8DEF
:100893000B78081208D620F01430E72B74FFFCFB0A
:1008A300FA747F8022E4FCFBFA7480801AB4800817
:1008B300BC00F2BB00EF800F50EBF9E4C39AFAE4FB
:1008C3009BFBE49CFCE499C6CC18C6CB18C6CA189B
:1008D300C6F922E4C9C608CAC608CBC6D33303087F
:1008E300CCC63392F0C3947F402E94184019C9B9F3
:1008F3000704CACBCC225025C309CA33CACB33CB96
:10090300CC33CC33D9F422F4600DC9CCC313CB134D
:10091300CBCA13CAD9F6CC22E4FCFBFA2214FCFBA3
:10092300FA22C3E498F8E499F91209668026C3E42D
:100933009AFAE49BFBE920E7E9120966E498F8E4F4
:1009430099F922C3E498F8E499F9120966E498F84E
:10095300E499F9C3E49AFAE49BFB22EB20E7CFE99D
:1009630020E7E0B90010BB0008E88AF084F8AAF099
:1009730022E4FBC8FA22EB70227B10C833C8C933C8
:10098300C9335007C39AC3DBF280069A50012ADBAE
:10099300EAC833F4C8C933F4C9FA2275F008E4C8C5
:1009A30033C8C933C933C99AC99B5004C92AC93B3F
:1009B300D5F0ECFBC833F4C8E4C9FA22080808EA06
:1009C300C0E0EBC0E086F0E7A4FA180986F0E7A4DC
:1009D3002AFA180986F0E7A42AFA180986F0E7A488
:1009E3002AFA1986F0E7A4FBE5F02AFA190886F03B
:1009F300E7A42BFBE5F03AFA190886F0E7A42BFBF2
:100A0300E5F03AFA18180986F0E7A4C5F02BFBE4E1
:100A13003AFA1908E7C5F0C6A426F6E5F03BFBE46D
:100A23003AFA1886F0E7A4F6E5F00826F6E43B0860
:100A3300F6E43A08F6D0E0FBD0E0FA22080808E62C
:100A430030E71112120D120A57080808C64480C66F
:100A530018181822181818E9799EC608CAC608CBB0
:100A6300C608CCC6C370207996CACBCC7019798ED0
:100A7300CBCC70137986CC700EF9802ACA33CACBDB
:100A830033CBCC33CC331930E7F2CCCBCA3350144D
:100A93007004EA30E00DE4CA3ACACB3BCBCC3CCC81
:100AA300500209C3E913C6CC182313C6CB18C6CA10
:100AB30018C6F922E4CFC0E0E4CEC0E0E4CDC0E044
:100AC300E4CCC0E075F020E626F608E633F608E647
:100AD30033F608E633F6181818EC33FCED33FDEE65
:100AE30033FEEF33FFC3EC9709ED9709EE9709EF58
:100AF30097191919400FFFEC97FC09ED97FD09EEC3
:100B030097FE191906D5F0BFECF709EDF709EEF7D3
:100B130009EFF7191919D0E0FCD0E0FDD0E0FED0C1
:100B2300E0FF222521C582C0E0E52234FFC583C052
:100B3300E0E521C3958224F810AF088583228582DE
:100B4300218008858322858221D2AFCEF0A3E520C0
:100B5300F0A37808E608F0A3DEFAEFF0A3E581241A
:100B6300FAF8E608F0A3E608F0A3E608F0A30808FD
:100B7300E608F0A3E608F0A315811581D0E0FED0C6
:100B8300E0F8158115811581E8C0E0EEC0E022C0D0
:100B9300E074F2120C65A2AFE433FED2AFE589A292
:100BA300E05005790112170E758900C2C57523003F
:100BB300EEA2E092AF7F01020CC4C0E074F2120C0B
:100BC30065A2AFE433FED2AFE58AA2E35005790212
:100BD30012170E758A00C2EB80D3C0E074F2120CB8
:100BE30065A2AFE433FED2AFE58BA2E050057904F2
:100BF30012170E758B00C2E880B3121402B90003FA
:100C0300020C4FE4900501786779138002F0A3D8B2
:100C1300FCD9FA78239000867A01BA00028007E4AF
:100C230093A3F608DAF97A677B17900087786379DC
:100C3300028015E493A3AD82AE838A828B83F0A3F3
:100C4300AA82AB838D828E83D8E9D9E77582F87542
:100C530083FD740212109E75820875832C74001232
:100C6300109EC0D02521C582C0E0E52234FFC58394
:100C7300C0E0E521C3958224F310AF088583228564
:100C830082218008858322858221D2AFC8F0A3E91F
:100C9300F0A3EAF0A3EBF0A37908E709F0A3D8FAED
:100CA300ECF0A3EDF0A3EEF0A3EFF0A3D0E0F0A3FC
:100CB300D0E0F0A3D0E0F0A3E520F0A3E5F0F0A3AB
:100CC30022852283852182E0C0E0A3E0F9A3E0FA34
:100CD300A3E0FBA37808E0F608A3DFFAE0FCA3E0B7
:100CE300FDA3E0FEA3E0FFA3E0C0E0A3E0C0E0A318
:100CF300E0F5D0A3E0F520A3E0A3F5F010AF08855D
:100D030083228582218008858322858221D2AFD0E8
:100D130082D083D0E0F8D0E03275F0108E248F2596
:100D2300858229858328852182852283E0CEA3E0DD
:100D3300CF852982852883EBC9EAC8EDCBECCAC3EA
:100D4300E833C8E933C9EA33CAEB33CBC3EA9EF5C8
:100D530027EB9FF526B35004AB26AA27EC33CCED43
:100D630033CDD5F0DAAE24AF25221213A9601C12BD
:100D7300138B601712141770071214297001D322F2
:100D8300C0D01214297006D0D0B322C32233D0D0DE
:100D9300501430E0F6C3E7960809E7960809E7968A
:100DA3000809E796B32220E0D5E6970809E69708F5
:100DB30009E6970809E697B3221213A9601B1213D9
:100DC3008B60161214177007121429600CB322C01B
:100DD300D01214297005D0D022C32233D0D050139F
:100DE30030E0EBC3E7960809E7960809E796080998
:100DF300E7962220E0E4E6970809E6970809E697D4
:100E03000809E69722D083D082ECC0E0EDC0E0E48D
:100E130093A3FCE493A3FDED4C600D120EE0EC24D0
:100E2300FFFCED34FFFD80EFE493A3FCE493A3FD0B
:100E3300ED4C600D120FA9EC24FFFCED34FFFD8097
:100E4300EFD0E0FDD0E0FCE493A3C0E0E493C0E086
:100E530022852283852182E0A3FEE0A3F520780882
:100E6300E0A3F608DFFAE0A3FFE0A3C0E0E0A3C03D
:100E7300E0E0A3C0E0E0A3C0E0E0A3C0E010AF085F
:100E83008582218583228008858221858322D2AFB2
:100E9300D083D0820210A4D083D082E9C0E0E4934F
:100EA300A3C386F0C5F095F0F908E493A386F0C5D3
:100EB300F095F0700BE493A3C3994005E904800215
:100EC300A3E475F002A42582F582E5F03583F5836A
:100ED300D0E0F9E493A3C0E0E493C0E022C0E0C310
:100EE300E49396087401939618400FE49366700890
:100EF30008740193661870007019A3A3C3E4939652
:100F0300087401939618A3A3400DD0E0D0E0D0E07D
:100F1300020E44A3A3A3A3A3A3D0E02274048004DA
:100F230074028000CCC0E0EDC0E0E521C39CCCADF1
:100F33002250011D10AF068C218D2280068C218D3D
:100F430022D2AF121020D0E0FDD0E0FC2274028048
:100F530000CCC0E0EDC0E0E521C39CCCAD22500144
:100F63001D10AF068C218D2280068C218D22D2AFDD
:100F7300120FFED0E0FDD0E0FC221213A96025126F
:100F8300138B60201214177003021429080808E752
:100F93006670101819E766700A1819E76670041866
:100FA30019E76622F422C0E0C0F088F0E49366708B
:100FB300080874019366187000A8F0A3A3700BD0FF
:100FC300F0D0E0D0E0D0E0020E44A3A3D0F0D0E014
:100FD30022D083D082CCC0E0E493A36006121041F8
:100FE3001470FAE493A3600612118D1470FAD0E022
:100FF300FCE493A3C0E0E493C0E022CAC0E0E4931E
:10100300A3C582CCC582C583CDC583F0A3C582CCDD
:10101300C582C583CDC583DAE5D0E0CA22CAC0E064
:10102300E0A3C582CCC582C583CDC583F0A3C582A9
:10103300CCC582C583CDC583DAE6D0E0CA22C0E041
:10104300E493A3D39C5010E493A3C39C400AD0E041
:10105300D0E0D0E0020FF1A3A3A3D0E022700908EF
:101063000808226016181818C6C333C608C633C644
:1010730008C633C608C633C6D5E0EA22C008C3E0B3
:1010830096F50808A3E096420808A3E096420808EC
:10109300A3E09645087001D3D00822C09FF59FE4D2
:1010A30073D09F22D083D082C09FE493C0E07401A9
:1010B30093C0E0740293F59F22C0E0C0D0E8C0E083
:1010C300A8A8D2AFC2C7752300E8A2E792AFD0E0C9
:1010D300F8D0D0D0E0322521F58210AF08F52140B9
:1010E3000C15228008F52140021522D2AF852283F8
:1010F300227404800A74038006740280027401C09F
:10110300E0F4041210D9D0E01213C52200C0D02598
:101113002110AF08F521500C05228008F52150025B
:101123000522D2AFD0D022BB0102E722C082C08306
:1011330089828A83BB0003E08002E493D083D08258
:10114300226016080808C6C313C618C613C618C6F5
:1011530013C618C613C6D5E0EA222521F8E43522C2
:10116300F9222521FAE43522FB222521FCE435224C
:10117300FD22C3E0C696F608A3E0C696F608A3E0F0
:10118300C696F608A3E0C696F622C0E0E493A36CE5
:101193007009D0E0D0E0D0E0020FF1A3A3D0E022A9
:1011A300252110AF08F521400C15228008F52140B8
:1011B300021522D2AF22E066701008A3E066700A1F
:1011C30008A3E066700408A3E06622E766701008CF
:1011D30009E766700A0809E76670040809E76622EA
:1011E300C3E09608A3E09608A3E09608A3E096A2BE
:1011F300D265D03322C3E7960809E7960809E79634
:101203000809E796A2D265D03322181818E4C396CA
:10121300F608E496F608E496F608E496F622C3E0A8
:1012230096F008A3E096F008A3E096F008A3E096F2
:10123300F022C3E697F60809E697F60809E697F65B
:101243000809E697F622181818E60846087009E612
:1012530026087005E633F4220822191919E709470D
:10126300097009E727097005E733F4220922C3E46B
:1012730093960874019396087402939608740393E3
:101283009622E627F60809E637F60809E637F60850
:1012930009E637F622700422600D18C6C333C60868
:1012A300C633C6D5E0F41822E056F608A3E056F696
:1012B30008A3E056F608A3E056F622E026F608A3B4
:1012C300E036F608A3E036F608A3E036F622E02679
:1012D300F008A3E036F008A3E036F008A3E036F008
:1012E30022E056F008A3E056F008A3E056F008A366
:1012F300E056F022E647F60809E647F60809E6470E
:10130300F60809E647F622E657F60809E657F6080F
:1013130009E657F60809E657F622600D08C6A2E764
:1013230013C618C613C6D5E0F322C6F4C608C6F41E
:10133300C608C6F4C608C6F4C622C3E09608A3E0EE
:101343009608A3E09608A3E09622C3E7960809E768
:10135300960809E7960809E7962275D00075813F3C
:1013630075210175220500020BFD600C08C6C3132D
:10137300C618C613C6D5E0F422E6F008A3E6F008C3
:10138300A3E6F008A3E6F022E7094709C3134709D8
:10139300336002E733F422E0F608A3E0F608A3E0A3
:1013A300F608A3E0F622E6084608C31346083360AE
:1013B30002E633F422800100E9F874FF28F904708F
:1013C300F622CAC0E0E6F0A308DAFAD0E0FA22E097
:1013D300F8A3E0F9A3E0FAA3E0FB22E8F0A3E9F025
:1013E300A3EAF0A3EBF022EAF0A3EBF0A3ECF0A363
:1013F300EDF022E0FAA3E0FBA3E0FCA3E0FD22E58D
:10140300C754F84401F5C77901222521F582E43553
:1014130022F58322E62618461846184622C2AF75DF
:10142300D69F02000022E7271947194719472212BE
:1014330010A74ADA021210A797DA021210A71FDBCD
:10144300021210A7DADB021210A73DDC021210A76A
:1014530081DC021210A71BDD021210A799DD021214
:1014630010A7CCDD021210A7DADE021210A7FADEF3
:10147300021210A74EDF021210A736E0021210A7C5
:1014830038E2021210A7DAE2021210A72AE50212CA
:1014930010A7AEE5021210A7B3E8021210A7E7EAFD
:1014A300021210A71FEB021210A77EEC021210A764
:1014B30088EC021210A7D7EC021210A7A9EE0212B1
:1014C30010A71484051210A74884051210A79B8443
:1014D300051210A79E85051210A788FB041210A7FA
:1014E300E6FB041210A728FC041210A74AFC0412FE
:1014F30010A725FD041210A769FD041210A79EFD75
:10150300041210A73EF0021210A7BAF0021210A79D
:10151300EDF0021210A71BF1021210A759F10212EB
:1015230010A794F3021210A7B3F3021210A7F8F353
:10153300021210A78EF4021210A7DAF4021210A7F7
:101543006EF5021210A746F6021210A7A2F60212B7
:1015530010A700F7021210A77DF7021210A7B3F726
:10156300021210A7FEF7021210A724F8021210A706
:10157300B4F8021210A74BF9021210A797F902123E
:1015830010A7C8F9021210A7FFF9021210A785FBD2
:10159300021210A74FFC021210A71FFD021210A780
:1015A300E6A1041210A7F0A1041210A762A204126C
:1015B30010A76DA2041210A778A2041210A793A279
:1015C300041210A7A2A2041210A7D7A2041210A7F4
:1015D300FFA2041210A727A3041210A756A30412F4
:1015E30010A753A4041210A7A0A4041210A7B5A413
:1015F300041210A747A5041210A796A5041210A75A
:10160300C2A5041210A7E7A6041210A7B4A80412D7
:1016130010A7D0E2041210A7FCE2041210A71CE3E7
:10162300041210A743E3041210A78AE4041210A7BC
:10163300BDE4041210A77BE5041210A715E60412FB
:1016430010A74296051210A74796051210A77A967F
:10165300051210A79CF4041210A763F5041210A737
:1016630075F5041210A7F0F5041210A79A9005124D
:1016730010A7AB90051210A74991051210A754911A
:10168300051210A76C91051210A7EF7F001210A787
:10169300DC7F001210A77B91051210A78B91051216
:1016A30010A7A091051210A75492051210A7988EA7
:1016B300051210A71B8F051210A7818F051210A703
:1016C3000080051210A71480051210A77B80051255
:1016D30010A7C480051210A7EC80051210A7108173
:1016E300051210A73381051210A76B81051210A7ED
:1016F3009381051210A7CE81051210A7B688051293
:1017030010A73D89051210A75289051210A79789C2
:10171300051210A7DD89051210A7F489051210A779
:1017230089DB041210A797DB041210A710DC041244
:1017330010A7E8DC041210A7ABDE041210A7FADE30
:10174300041210A738DF041210A7F87F001210A7A5
:101753000A82051210A74282051210A78D83051273
:1017630010A71184051210A7B2C5041210A7DEC575
:10177300041210A722C8041210A762C8041210A7EB
:10178300A2C8041210A7B6C8041210A7CFC8041227
:1017930010A7C1C9041210A766CA041210A77ACAF7
:1017A300041210A7F885051210A71C86051210A7AE
:1017B3003586051210A76786051210A797860512AE
:1017C30010A7C486051210A7CE86051210A730876E
:1017D300051210A73F87051210A74987051210A706
:1017E3005687051210A7F7F1041210A717F2041277
:1017F30010A756F2041210A771F2041210A790F268
:10180300041210A7F6F2041210A7FFF2041210A795
:101813005CF3041210A76BF3041210A78FF30412E6
:1018230010A750F4041210A75DF4041210A76EF46D
:10183300041210A7657F001210A7AD7F001210A736
:10184300D97F001210A701C1041210A75BC20412B2
:1018530010A769C2041210A77CC2041210A791C278
:10186300041210A7A6C2041210A7B9C2041210A72B
:101873002DC3041210A792C3041210A71AC4041292
:1018830010A796C4041210A75AC5041210A76AC55C
:10189300041210A779C5041210A71393051210A7F9
:1018A3003793051210A75F93051210A787930512AC
:1018B30010A701F7041210A728F7041210A746F780
:1018C300041210A7B9F7041210A724EF041210A7EB
:1018D3003DEF041210A749EF041210A75DEF0412A5
:1018E30010A77BEF041210A785EF041210A78FEF48
:1018F300041210A7A2EF041210A728F0041210A7D5
:101903009DF0041210A7CCF0041210A71AF10412D0
:1019130010A769F1041210A784F1041210A78EF125
:10192300041210A79FF1041210A7E2F1041210A7EA
:101933008A94051210A7D594051210A757AB041269
:1019430010A781AB041210A79EAB041210A7B1AB72
:10195300041210A7C7AB041210A725AC041210A7DA
:101963005DAC041210A751B0041210A796B1041273
:1019730010A7C9B1041210A72CB2041210A78CB37C
:10198300041210A7B4B3041210A7C9B3041210A70A
:10199300D9B3041210A71DB4041210A778B404120B
:1019A30010A788B4041210A7468B051210A7608BEA
:1019B300051210A7888B051210A7A18B051210A77B
:1019C300C58B051210A7E38B051210A7FA8B05121E
:1019D30010A7288C051210A7438C051210A75A9242
:1019E300051210A79E92051210A74BDF041210A731
:1019F3005BDF041210A760E0041210A792E0041248
:101A030010A7C2E0041210A7E5E0041210A7FCE03F
:101A1300041210A736E1041210A79BE1041210A7C9
:101A2300DDE1041210A71CE2041210A74DE2041218
:101A330010A778E2041210A76087051210A7728717
:101A4300051210A78688051210A78988051210A70A
:101A5300948D051210A7CA8D051210A7E08D0512EB
:101A630010A7228E051210A7328E051210A7768EAC
:101A7300051210A7808E051210A7B8B4041210A780
:101A8300FBB4041210A760B5041210A77DB50412AD
:101A930010A71FB6041210A728B6041210A76DB61C
:101AA300041210A796B6041210A7A3B6041210A727
:101AB3001EB7041210A7A9B7041210A7EEB7041299
:101AC30010A739B8041210A79EB8041210A7C1B802
:101AD300041210A732B9041210A787B9041210A771
:101AE300C2B9041210A7F7B9041210A709BA041255
:101AF30010A71BBA041210A73ABA041210A743BACC
:101B0300041210A7F6BA041210A739BB041210A7C7
:101B130077BB041210A73995051210A7068A051280
:101B230010A752F9041210A788F9041210A7D0F9CC
:101B3300041210A729FB041210A7D1DB031210A76C
:101B4300EADC031210A724DD031210A7D2DE03126E
:101B530010A700DF031210A766E1031210A7A6E186
:101B6300031210A74AE3031210A7DAE3031210A724
:101B73002EE4031210A7D0E4031210A712E50312F8
:101B830010A754E5031210A7B1E6031210A7FFE74D
:101B9300031210A736EA031210A764EA031210A770
:101BA3008BEA031210A794EA031210A7EBEA0312BD
:101BB30010A786EB031210A78EEE031210A715EFE2
:101BC300031210A754FF011210A76CFF011210A7F4
:101BD30076FF011210A7CAFF011210A78ECA0412C2
:101BE30010A7A4CA041210A745CB041210A784CBD4
:101BF300041210A7A1CB041210A7D2CB041210A772
:101C03001FCC041210A752CC041210A78DCC0412BF
:101C130010A788CE041210A7F0CE041210A79A8F33
:101C2300051210A7F98F051210A73790051210A7F8
:101C33007890051210A7E194051210A700800212F4
:101C430010A70C80021210A76E80021210A77880D2
:101C5300021210A70981021210A74581021210A7D0
:101C63003582021210A78282021210A71183021278
:101C730010A74783021210A7C283021210A79185EF
:101C8300021210A78B87021210A76988021210A7ED
:101C93008789021210A7CD8B021210A7108D021292
:101CA30010A7BF8D021210A75F92021210A75393C1
:101CB300021210A7F793021210A71C94021210A786
:101CC300B894021210A7CD94021210A7F194021235
:101CD30010A75F95021210A77C95021210A7A69574
:101CE300021210A73C97021210A75D97021210A7C9
:101CF3000398021210A74B98021210A7A098021281
:101D030010A74099021210A7A499021210A7029AD1
:101D1300021210A7AB9A021210A7199B021210A766
:101D23004C9B021210A7BA9B021210A7F59C021239
:101D330010A76B9E021210A7089F021210A746A1BC
:101D4300021210A7AFA1021210A7D9A1021210A765
:101D5300F5A3021210A79CA6021210A7C5A7021290
:101D630010A70080041210A72B80041210A714825E
:101D7300041210A70A86041210A76487041210A77E
:101D83001988041210A7A188041210A7E48804126A
:101D930010A7A889041210A7C68A041210A76E8B75
:101DA300041210A78B8B041210A7A88B041210A780
:101DB300EE8B041210A75E8C041210A7528D04122E
:101DC30010A7E895051210A7A3BB041210A730BCF7
:101DD300041210A7AABC041210A7CBBC041210A7AC
:101DE300A7BD041210A714BF041210A70DC7031236
:101DF30010A73CC7031210A7B4C7031210A7B7C894
:101E0300031210A713C9031210A78ACA031210A73B
:101E1300A6CA031210A7F8CA031210A73BCB0312DA
:101E230010A74ECB031210A7A0CB031210A75BCCB5
:101E3300031210A7D5CC031210A7FFCC031210A7CF
:101E430037CD031210A7B3CE031210A78CCF031202
:101E530010A7D5D0031210A7A8D1031210A730D210
:101E6300031210A778D2031210A792D2031210A75D
:101E7300D9D2031210A7F9D2031210A78FD30312DA
:101E830010A715D4031210A76FD4031210A7B3D44D
:101E9300031210A744D7031210A767D8031210A781
:101EA300A3D8031210A795D9031210A7BDD9031203
:101EB30010A7C0D9031210A7CAD9031210A7DDD9DE
:101EC300031210A75CDA031210A792DA031210A709
:101ED300BEDA031210A7E5DA031210A709DB031217
:101EE30010A77ADB031210A788DB031210A7BBDB52
:101EF300031210A7AC93051210A7B893051210A7ED
:101F0300EC93051210A7F27F001210A7F3B003128F
:101F130010A716B1031210A75CB2031210A7A5B243
:101F2300031210A70DB3031210A76BB3031210A76C
:101F33006EB3031210A71F9E041210A72DB4031231
:101F430010A7B5B4031210A7B8B4031210A742B573
:101F5300031210A71DDA021210A766B9031210A705
:101F6300FFBA031210A75DBB031210A7D8BE03125A
:101F730010A711C0031210A780C1031210A71EC21D
:101F8300031210A729C3031210A77AC5031210A7BF
:101F930064EF031210A70EF0031210A774F00312DC
:101FA30010A78DF0031210A709F1031210A75FF118
:101FB300031210A7AFF1031210A721D3021210A727
:101FC3008FF3031210A7BDF4031210A742F50312F7
:101FD30010A748F7031210A7F1F7031210A79AF8F6
:101FE300031210A75CF9031210A705FB031210A735
:101FF300ADFC031210A75EFD031210A776FE0312B9
:1020030010A70080031210A77480031210A7BC80CE
:10201300031210A70081031210A74981031210A70E
:102023009381031210A7CB81031210A749820312D5
:1020330010A7A382031210A7F783031210A78884A3
:10204300031210A7E084031210A7FA84031210A747
:102053002285031210A77A85031210A7E9870312BA
:1020630010A70888031210A7EC88031210A71C8A74
:10207300031210A7998A031210A7E88A031210A764
:10208300498B031210A7EF8B031210A7BD8D031208
:1020930010A7BD8E031210A73B90031210A71C922A
:1020A300031210A78294031210A73296031210A7EB
:1020B3000297031210A77097031210A787970312B2
:1020C30010A77F98031210A76F99031210A7DA992C
:1020D300031210A76DE9041210A7B9EA041210A79E
:1020E30076EB041210A7DAEB041210A747E60412EA
:1020F30010A762E6041210A7A6E6041210A7CCE606
:10210300041210A7F2E6041210A70AE7041210A79C
:102113006DE7041210A782E7041210A7A5E80412C2
:1021230010A7AEE8041210A7B7E8041210A7C0E87E
:10213300041210A7CAE8041210A7FDCE041210A7B8
:10214300FCD2041210A701D3041210A703D3041264
:1021530010A76DFE021210A7E0FF021210A74EECAB
:10216300041210A7768C051210A72194051210A74C
:10217300BEFD041210A7BFFF031210A79ED70412BF
:1021830010A79195051210A7A195051210A76AD360
:10219300041210A7F2AB021210A725AC021210A76B
:1021A30091AC021210A72CAD021210A7C9AD0212F6
:1021B30010A70EAE021210A730AE021210A749AE3E
:1021C300021210A76FAE021210A791AE021210A74F
:1021D300CFAE021210A713AF021210A735AF02122F
:1021E30010A797AF021210A75EB0021210A715B185
:1021F300021210A787B1021210A752B2021210A73F
:10220300A5B2021210A70BB3021210A745B3021214
:1022130010A797B3021210A705B4021210A770B447
:10222300021210A773B4021210A7F4B4021210A77B
:102233008BB5021210A70BB6021210A72AB6021210
:1022430010A78EB7021210A79BB7021210A7A7B848
:10225300021210A7B4B8021210A7BDB8021210A739
:1022630095BA021210A7AFBB021210A728BC021224
:1022730010A79ABC021210A7BCBC021210A750BD33
:10228300021210A724BF021210A7FBC2021210A74A
:102293000FC3021210A71FC3021210A729C30212F1
:1022A30010A732C3021210A73BC3021210A745C3E3
:1022B300021210A772C3021210A79BC3021210A727
:1022C300A6C3021210A7CAC3021210A7EEC30212BA
:1022D30010A758C4021210A79EC4021210A7BBC4B1
:1022E300021210A738C5021210A76FC5021210A759
:1022F300AEC5021210A7FBC5021210A781C60212B7
:1023030010A74FC8021210A7D2C8021210A7B6C94D
:10231300021210A71DCC021210A776CC021210A72E
:10232300C0CC021210A71BCE021210A750CE02126D
:1023330010A7A2CE021210A757CF021210A706D0E1
:10234300021210A743D0021210A7D8D0021210A76E
:1023530044D1021210A7A832001210A7DA320012D9
:1023630010A70833001210A7DE34001210A7BE35E1
:10237300001210A71636001210A75137001210A72B
:102383009D37001210A7C63A001210A7B93D0012DC
:1023930010A7093F001210A79F3F001210A7AB3FE1
:1023A300001210A7DD3F001210A76041001210A712
:1023B3001143001210A7A543001210A7E84300120F
:1023C30010A76644001210A78344001210A7B34459
:1023D300001210A7E844001210A7B845001210A776
:1023E3006146001210A7E748001210A7074A00121F
:1023F30010A7F24A001210A7744B001210A7A84F9F
:10240300001210A7E54F001210A73D50001210A7AD
:102413007050001210A7DA50001210A710510012CA
:1024230010A79B51001210A7F351001210A7CA5214
:10243300001210A78353001210A71E54001210A7F6
:102443002657001210A74258001210A7E55B00128E
:1024530010A7D95C001210A7DC5C001210A70B5D5B
:10246300001210A7115F001210A7EA5F001210A755
:102473002D60001210A78361001210A7C261001221
:1024830010A74B62001210A77F62001210A74463CB
:10249300001210A75C65001210A7CD65001210A7EB
:1024A3000D66001210A79B66001210A7BD670012ED
:1024B30010A77F68001210A7866A001210A79E6AF1
:1024C300001210A7B26A001210A7EA6A001210A73E
:1024D300186B001210A7976C001210A7BC6D0012A6
:1024E30010A7196E001210A7CB6E001210A7F26E80
:1024F300001210A7B96F001210A75170001210A795
:102503007772001210A7AC72001210A70F7300129B
:1025130010A73E74001210A7E674001210A71775D7
:10252300001210A72F75001210A7BE75001210A776
:102533007278001210A74A7A001210A7667A001266
:1025430010A7827A001210A7507B001210A7437FB6
:10255300001210A75D8A011210A78F8A011210A71B
:102563007E8E011210A7CA8E011210A7108F0112BE
:1025730010A7B28F011210A70E90011210A753904B
:10258300011210A79A91011210A7AE92011210A77F
:102593009D96011210A72197011210A72E980112E0
:1025A30010A78A98011210A77A9A011210A7EF9A1E
:1025B300011210A7F99A011210A7069B011210A786
:1025C300319B011210A7189C011210A7C29C011283
:1025D30010A7409D011210A7609D011210A7899DAD
:1025E300011210A7AB9D011210A70BA0011210A797
:1025F300D1A0011210A716A1011210A793A10112D5
:1026030010A744A2011210A776A2011210A7BCA220
:10261300011210A7F8A2011210A748A3011210A7D4
:102623009CA3011210A7F2A3011210A73EA401124A
:1026330010A7ABA4011210A726A5011210A7F1A69B
:10264300011210A7F1A7011210A716A9011210A7D2
:1026530055AC011210A768AF011210A725B00112E3
:1026630010A769B0011210A719B2011210A72DB259
:10267300011210A737B2011210A741B2011210A71D
:102683004DB2011210A769B2011210A714B30112BF
:1026930010A753B3011210A75DB3011210A767B3BC
:1026A300011210A7D7B3011210A722B4011210A769
:1026B30037B5011210A793B5011210A714B6011272
:1026C30010A7D3B6011210A7DCB7011210A710B9D7
:1026D300011210A7FEB9011210A716BA011210A712
:1026E30071BA011210A78FBA011210A7D7BA01123B
:1026F30010A7FEBA011210A799BB011210A75FBC65
:10270300011210A7F1BC011210A76BBD011210A793
:1027130085BE011210A732BF011210A75AC00112C1
:1027230010A7AAC0011210A70EC1011210A770C1F1
:10273300011210A79EC1011210A7C2C1011210A756
:10274300F7C1011210A728C2011210A75BC2011220
:1027530010A77BC2011210A7E3C2011210A7D7C3AF
:10276300011210A732C4011210A75BC4011210A7F3
:10277300E3C4011210A766C5011210A791C5011287
:1027830010A776C6011210A73FF4011210A777F421
:10279300011210A798F4011210A7DAF4011210A77E
:1027A3003CF5011210A746F5011210A756F50112C8
:1027B30010A791F5011210A771F9011210A75EFB82
:1027C300011210A744FD011210A7DBFD011210A78F
:1027D3007DFE011210A778C8011210A7F6C80112D6
:1027E30010A752C9011210A79DC9011210A7B8C999
:1027F300011210A7E3C9011210A700CA011210A702
:102803000CCA011210A7A3CB011210A7BCCB011253
:1028130010A741CC011210A754CC011210A773CCFE
:10282300011210A717CD011210A798CE011210A7FD
:102833004BD0011210A7E1D0011210A7E4D001126E
:1028430010A754D1011210A772D1011210A709D2F7
:10285300011210A751D2011210A754D2011210A7CE
:102863001AD3011210A787D3011210A7ADD30112F7
:1028730010A738D4011210A756D4011210A79CD464
:10288300011210A750D5011210A79AD5011210A753
:10289300C9D5011210A726D6011210A75BD60112C3
:1028A30010A787D6011210A795D6011210A7E2D65A
:1028B300011210A752D7011210A79BD7011210A71C
:1028C300E7D7011210A713D8011210A71ED80112BF
:1028D30010A73CD8011210A727D9011210A731D98C
:1028E300011210A76CD9011210A77CD9011210A7ED
:1028F30085D9011210A7D9D9011210A7EDD9011258
:1029030010A71CDB011210A733DB011210A748DB51
:10291300011210A7D6DB011210A71BDC011210A7AE
:10292300A7DC011210A7B2DC011210A7F4DD01121B
:1029330010A70FDE011210A75BDE011210A7CADE7B
:10294300011210A703DF011210A71DDF011210A748
:102953005FDF011210A72FE2011210A7DCE20112C0
:1029630010A749E3011210A789E5011210A7A1E5F9
:10297300011210A7A4E5011210A7B0E5011210A7D8
:10298300C4E5011210A7CCE5011210A7FFE501125F
:1029930010A701E7011210A788E7011210A7F8E7B3
:1029A300011210A77AE8011210A73BE9011210A740
:1029B3005AE9011210A7FBE9011210A758EA011204
:1029C30010A75BEA011210A788EA011210A79DEA7B
:1029D300011210A711EB011210A760EC011210A74E
:1029E30066ED011210A7F1ED011210A70CEF011211
:1029F30010A7D4EF011210A705F0011210A728F0B9
:102A0300011210A731F0011210A760F0011210A7F4
:102A1300F0F0011210A7A6F1011210A71BF2011288
:102A230010A7C2F2011210A737F3011210A76EF319
:102A3300011210A7ACF3011210A7E2F3011210A7C1
:102A430086D9021210A7159E041210A7BF9D041267
:102A530010A7AB9D041210A70A9D041210A70E9C89
:102A6300041210A7389B041210A74199041210A74F
:102A73009498041210A72698041210A7C3B0031247
:102A830010A7B9B0031210A727D7021210A783B556
:102A9300031210A74EB0031210A7A2AE031210A781
:102AA3007ED2021210A73DD2021210A760AE03120B
:102AB30010A780AD031210A76AAD031210A72BADA8
:102AC300031210A786AC031210A780A9031210A744
:102AD3006EA7031210A73BA7031210A7D6A60312D3
:102AE30010A769A6031210A728A6031210A761A5B1
:102AF300031210A7FCA4031210A7A7A4031210A784
:102B03004AA4031210A721A3031210A7BEA2031203
:102B130010A708A2031210A703A2031210A7F7A17C
:102B2300031210A7AA9E031210A7849E031210A7D4
:102B33001ED2021210A7EBD1021210A7D6D1021295
:102B430010A7ABD1021210A7A0A1041210A768A16D
:102B5300041210A711A1041210A7299E031210A793
:102B6300D49D031210A7959D031210A7829D0312F3
:102B730010A77A9F041210A7779D031210A7539DE5
:102B8300031210A7629B031210A7E19A031210A766
:102B9300E0D3021210A79D9A031210A716F2031294
:102BA30010A7719A031210A7C897041210A78A9747
:102BB300041210A75D97041210A72997041210A7F7
:102BC300C896041210A7B096041210A78C9604128C
:102BD30010A75593041210A72191041210A7088F70
:102BE300041210A7978E041210A7468E041210A782
:102BF300008E041210A7698D041210A7BC9E041244
:102C030010A7BAB30300000080FB000022E4738F17
:102C13000001004218870001004018350004000934
:102C230018250002000D18260002000F18270002C5
:102C3300001118280001001B18290001001C18842A
:102C430000040055158600010075172A0001001DB8
:102C5300182B0001001E182C00010022182D00085B
:102C63000061152E00010023182F000100241830E5
:102C73000001002518310001002618320001006907
:102C830015330001006A15340001002718360001CE
:102C9300006B153800010028183900010021188342
:102CA3000002003E18630001007715640001001F55
:102CB300186500010020186D0001007815710008E7
:102CC300005915660001003D18430001002E184409
:102CD3000002002F1845000100311846000200329F
:102CE30018470008006F154800010034184B000115
:102CF300003518040001004118A1000100451837F0
:102D030000010044188800010043183C0001006CD6
:102D1300153D00010029184900020036186700011B
:102D23000079154D00020038184E0001003A184F83
:102D33000002003B183E0001002D18510001006DF8
:102D430015520001002B18530001002C18540001E8
:102D5300006E150000000000000000000020015B71
:102D63008A0000010020015C8A0000020020015853
:102D73008A000003002001578A000004004201DB9F
:102D8300880000050042016688000006004201D663
:102D9300870000070030015A8A000000404201D634
:102DA300870000FDFF2101538A0100200020057DDB
:102DB300170100210020057E17010003F02127C120
:102DC3001700040000210543140204000029053BF9
:102DD30014020401F02127B117020402F02127B9DC
:102DE300170304000029053D140304100029053FBF
:102DF30014030414002805AA17030401F02127B3C0
:102E030017030402F02127BB170504000021054125
:102E130014050401F02127B517050402F02127BD8D
:102E23001700013636010100010201000103010010
:102E33000104010606050200000701003408010031
:102E43000F090401010D0100FF0E08000017020025
:102E530000190100FF1A0100011B0100FE1C010003
:102E6300081D0200001F01000120010001210200D2
:102E7300002301000F2402000026010001270100A6
:102E830008280200FF2A0100072B0102402C010041
:102E9300002D0100012E0100012F0100FF30010B65
:102EA3001D310800003A0100083B01000F3C0100FE
:102EB300013D0100FF3E04000042040000460400FF
:102EC300004A0400004E04000052040000560400AF
:102ED300005A04000001037103010301030103010C
:102EE3000301032203020301031003000300030091
:102EF300030003000300030003420300032403064B
:102F03000300030003040312032503230325032300
:102F1300030403040300030003000344030003004A
:102F23000323030003650321003503810300030525
:102F330003000300030003000325032303030271BB
:102F430002300160021102700201020202020280D9
:102F530002100261023A00410063027302720262CC
:102F630002430200021302380000020002040212AC
:102F730002000200020002000204020402370037CA
:102F8300003C024402000239000002000265020014
:102F9300023502810200020502820283020002015D
:102FA300017101010101011101010131010101015E
:102FB300018001100161013B001400630173017280
:102FC30001620143010001130106013D01350004C3
:102FD3000112010001000100010001040104013399
:102FE3000133013C01440132013600000100016557
:102FF3000100013500810100010501820183010007
:1030030001030071003001600011007000310220E3
:10301300035004800010006100000014006300737B
:10302300007200620043000000130006000000006D
:10303300000400120000000000000000000400046F
:1030430000370037003C024400000000000000008D
:1030530000650000003500810000000500000083CA
:1030630000000036000100060000000F0000000011
:1030730000000000000000000003FFFF0000040345
:10308300FFFF0000FFFF0FF4010005C4040320004D
:103093000100000B000000000000000003010F000E
:1030A300000000000000000000000000000000001D
:1030B300000000000000000000000000000000000D
:1030C30000201D4A1D261D5A1C2C1D501D2C1D5C45
:1030D3001D321D5A1C2C1D501D381D5A1C0000008A
:1030E300003E1D5A1C0000000000000000441D5A51
:1030F3001C000000000000000000000000000000B1
:1031030000000000000000000000000000000000BC
:103113000000000000000000000000000000009C10
:103123002B01009C2B0200301F02802A1F03000288
:103133002C04003C1F0480421F0500481F06008E1C
:103143002A3100661F33006C1F3400721FFFFF001B
:1031530000030003000400080010001F003E007B72
:1031630000F600EC01D703AF075D0FB91E713D00F8
:10317300000004000021054714000401F02127B7D3
:1031830017000400F02127AF17000402F02127BF26
:103193001707ECFDFDFDECDCDCCCBCACAC9C9C8CE3
:1031A3007C7C6C6C5C5C5C4C4C3C3C2C2C1C1C0395
:1031B300EAF5E5D5D5C5B5A5959585857575656597
:1031C30055554545353525251515050604000018C3
:1031D300054C14060410002127AB17060411002127
:1031E30027AD170ACC2502962505A225079C250C99
:1031F3007E250D8A25FF000000160F00000B150B1E
:10320300020002220F3300000E0FD0D1D2D3D4D547
:10321300D6D7D8D9DADBDCDDDEDF5A6967426565EC
:10322300416C6C69616E6365303930301718192150
:10323300301B1D1F3000034D4C4651181A25050243
:103243000001191618161618230300303016181922
:1032530020231A1C1E30003C40423A3F3F392F477F
:10326300300C0E020B040B0A0708000F02040201C4
:1032730001010109020F00550010054A14E803007B
:103283000000BE040A030001002400E803FF040950
:10329300011903041E051E030A0C040F0828020C5F
:1032A3000508150310C082C0831215049015A47479
:1032B3006EF0A37423F09015A67474F0A37423F036
:1032C3009015A8747AF0A37423F09015AA7480F073
:1032D300A37423F0025FE374F7120B26901598E4AE
:1032E300F0E9901597F07C6F7D157A997B15121C88
:1032F30030901834E09015A1F09015A27459F0A302
:10330300741502427074F0120B26EAFEEBFF548030
:1033130070030234799015971243057003023472D7
:10332300EA241B125B70707CEA241F125B70641327
:103333007002A3E0706E8A828B831234C79015B239
:10334300125102750A00750B00800D12414612716D
:10335300E2121B34AA0EAB0FEA4B60488A828B83BE
:10336300E0650C7004A3E0650D702C8A828B83A347
:10337300A3A3A3E0F50EA3E0F50FE50A450B8A82AC
:103383008B83A3A3A3A360C3124448850A82850B3E
:1033930083A3A3A3A380B78A0A8B0B8A828B83128E
:1033A30050FE80B4E508242A125B70FCE508240271
:1033B300F8E43509F9E8FAE9FB9015B21235AEA342
:1033C300A3E06402703C8A828B83125102800B88D3
:1033D300828983A3A3A3A3124448E849601F888278
:1033E3008983E06A7003A3E06B70E488828983A316
:1033F300A3E06C70DA90183A125EA0806BECF912BD
:1034030023AA850882850983E06401704FE50824B7
:10341300181234B012110012678A120F1FE5082424
:10342300121234B0121100E5081242F91210FCE531
:1034330008240B12678E120F23E5082417124296F5
:10344300E5082402FCE43509FDE5082419FAE4350E
:1034530009FB122BDE740A12110F800CE064027058
:1034630007AA08AB09122488AA08AB09121A9EEE10
:10347300FAEF6480802DEA5402600C901895740171
:10348300F0EA6402FA8023EA5408601A1223A4EAD9
:103493004B700B9015B41266657A081234BDEE6456
:1034A30008FAEFFB80047A007B00026E14F582E4D5
:1034B3003509F583E0F50A780A22FB901597E0F9C0
:1034C300121C0022A3A3E0F50CA3E0F50D227B0060
:1034D300901597E0F9121BF474042274F4120B266E
:1034E3008A088B098A828B83A3A3A3124EFA124202
:1034F300A138F583E02409FA126DAC70030235A1FB
:103503008A828B837402124F6F8508828509831226
:1035130035AEE8F0A3E9126A268A828B83A3A3A3BC
:10352300A3A3A3A3A3F0E5082403F8E43509123504
:10353300A31242A13AF583E08E828B83A3A3A3A3B4
:10354300F0EE2409FAE43FFB8E828F83A3A312617A
:1035530052F5838882E0A2E58E828F83A3A3A3A37F
:10356300A3500474018001E4F0E5082403F5828983
:1035730083125102EA1256833BF583126D731210C4
:10358300F81242A03B1262448E828F83A3A3127F60
:103593002212110FEEFAEFFB901597126DF98016B8
:1035A300F98882F583E0FAA3E0CA2212529FA3A30B
:1035B30022740212110F7F04020E5474F2120B26AE
:1035C3008A088B09ECFAEDFB740E12140DE0FC1261
:1035D300153A8A0C8B0DAE0CAF0DEA4F6030AC0878
:1035E300AD09121528E96026AC08AD09EEFAEFFB28
:1035F30012152EE970148E828F83124435FAEFFB75
:10360300121522AA08AB091215527900800279B467
:103613000251EE74F0120B2674F61211A3EAFEEBBC
:10362300FF8C088D09750FB3852182852283E4F011
:10363300750E008002050E903298E493F8E50EC3F0
:1036430098400302373DAA0E7B001215768A0A8B37
:103653000BEA4B60E08A828B83A3A312374428F0E2
:10366300F8C3EE98EF940050CC7C157D007900AA46
:1036730008AB09121A86850A82850B83A3A3A3A329
:1036830012721FE0F8EEC3982925E0F8E433F9E558
:103693000A28F582E50B39F583A3A3A3A3A3A312F9
:1036A30042ABA3125CC78A0C8B0DAC0CAD0DAA0800
:1036B300AB09121C30850A82850B83A3E064017079
:1036C3000A12678A74011242BD8044740112116D9B
:1036D300850A82850B8312510012155EE9603D74E1
:1036E3000912140DE0C0E012678AD0E0F0740912E9
:1036F300140DE064037013740112116DE508240BBB
:10370300FAE43509FB121C308012740112140D12F5
:103713004448E508125CAD35091271E0850A8285DB
:103723000B831267961242BDA3A3E0C0E0E5082411
:103733001412678ED0E0F0750F00A90F740A026EA1
:1037430011A3A3A3E0F8852182852283E02274F7E5
:10375300120B26E9FE8A828B83A3A3A3A3A3A3E070
:10376300540860338A828B83A3A3A3A3A3A3E05447
:103773000260218A828B83A3A3A3A3A3A3A3A3A3EE
:10378300E06406600F74E96E600A74CD6E600574C0
:10379300F06E700312238C024AED74F0120B267440
:1037A300EF1211A3740F12140D1265497408121449
:1037B3000DE9F0ECFEEDFF740512140D1248B5127D
:1037C3004AD9A3E0F9121546740612140D1265497D
:1037D300740612140D1257147003023A581242E57C
:1037E300E0FA740612140DE0F91222CC123AB8F87A
:1037F300A3E0F9E8497003023A58EE2403F50AE41A
:103803003FF50BEE2406F508E43FF5097C00850837
:1038130082F583125102850A82850B83E0F9121522
:103823004C740312140D126549850A82850B83E0DB
:10383300C0E0852182852283123AB1D0E012582953
:10384300F985218285228312414D12537B1237471A
:10385300FAA3E0CA2407F582E43AF583E8F0A3E487
:103863001265542406F582E438F583E41271EC12F0
:103873004EEE1210F8EE1242A13F1262447403128C
:10388300140D124EFA2409127F1C12110F742912FF
:10389300140D1272191235A812583C3A1271E074C1
:1038A3002B12140DE0C0E08521828522831256DBA2
:1038B300D0E0F0740212140DE4F0742512140D78A4
:1038C3000812139A0239AF740312140D12620C8892
:1038D30082F583123AA0A3A3A3125CD2FB12156450
:1038E300850E82850F83A3EAF0A3EBF07403121411
:1038F3000D123AB1A3123AA0125EE1A2E6500F856F
:103903000E82850F83A3A3A3A3A3E0D2E1F07405E2
:1039130012140DE0706B850E82850F83A312444849
:103923009015F2E0687003A3E0697055850E8285F7
:103933000F83A3A3A3124280750C00780C1211000D
:1039430078081210F4742912140DE0F50C780C1297
:103953001100742712140D120F239015FF120F2359
:103963007900741912140D1250D21224D0740A1251
:10397300110F850E82850F83A3A3A3A3A3E04405A0
:10398300F0740212140DE004FC8E828F831250FC3B
:103993008E828F83A3A3A3E0F912154C7403121430
:1039A3000D126549740212140DE004F0740312142D
:1039B3000D1257146067740212140DE0FA740612A4
:1039C300140D124448C3EA98E49950517402121436
:1039D3000D123D8A852182852283E028F8A3E039F0
:1039E300F9E8240FF50EE439F50F850E82F583E42B
:1039F300F0740312140D123AAB640160030238CA67
:103A0300740512140D7401126DFFF0740312140D7A
:103A1300125FD3123DADE8F0A3E90238EE852182AF
:103A23008522831251021222D2852182852283129A
:103A33000F23742612140DE0FD742512140DE0FCFF
:103A4300740A12140DE0F9EEFAEFFB1223867402E6
:103A530012110F80438E828F83A3A3A3E0C0E0746F
:103A63000C12140DD0E0F0126C68E0C0E0740D127B
:103A7300140DD0E0F0740612140D1257147009746B
:103A83000E12140D74B98007740E12140D7410F015
:103A930074091211651224CA7411026E11E0850EA5
:103AA30082850F83A3A3A322E0125801E022E01230
:103AB3005801A3A322852182852283EAF0A3EB1276
:103AC300571D2274F0120B2674E11211A374041211
:103AD300140DE9F0740312140DECF0740212140DBA
:103AE300EDF08A0E8B0F742F12140D1234C9AA0C29
:103AF300FB1222C0740112140DE9F0AA0CAB0D12D3
:103B030022C6740112140DE07003023D85852182E3
:103B1300852283E480158E828F83A3A3A3A3A3E0CE
:103B2300D2E3F0852182852283E004126D57F88564
:103B33002182852283E0C3984003023D7C740112F5
:103B4300140DE07003023D7C852182852283123DA2
:103B53008AE50C28F8E50D39F9E8240FFEE439FF6E
:103B63008E82F583A3A3A3A3A3E0A2E040B57508C7
:103B730000750A08750B00740212140DE0600375DA
:103B830008207C087D0079007405121165121A86DD
:103B93008E828F83E0603E901642E06401701AE5E6
:103BA30008D2E3F508750B10123D9A12140DE8F0D4
:103BB300A3E9125BC574FF807643080C750A0C8E6B
:103BC300828F83A3123DA51271E2740512140D7442
:103BD300FFF0A3805A740412140DE06009E508D2C3
:103BE300E6F508750A0A8E828F83A3E064FE7003EC
:103BF300A3E0F47030741212140D74041267B4F855
:103C0300741D12140DE8124F6F74121211651221F4
:103C1300EE7D007C007900741512140DAA82AB832B
:103C2300121FA2800B123D9A12140DE8F0A3E9F0C3
:103C3300740712140DE508F01242DCC0E074091297
:103C4300140DD0E0F0740A12140D7401F07405120F
:103C5300116512248E741112140DE06003023D5A93
:103C6300740D12140D1258248E828F83A3A3A3A361
:103C7300F0740D12140D124F3DE50AF0A3E50BF09D
:103C8300740312140DE0C0E0124ECED0E0125EE1D8
:103C93006011901642E0C0E0740D12140D124F181B
:103CA300D0E0F0740D12140D124448850C82850D7A
:103CB30083A3A3A3A3A3123D93241C1265431271F0
:103CC300FC123D95125E9339126C87C0E0124EB51B
:103CD300D0E0126D4CC0E0740D12140D1249FBD0EC
:103CE300E0126A4DC0E0740D12140D1249F1D0E0D8
:103CF300F0740D12140D123DA5123D93242A126582
:103D030043850E82850F83A3A3A3A3A3A3A3A3E049
:103D130012653C1242CBC0E01249DDD0E0F0740DD5
:103D230012140D125102850E82850F83126D6224C7
:103D330028F582E43B1271E01242D4126D73121023
:103D4300F812623DEA1264D53B127F2012110F7400
:103D5300051211651224948E828F83A3A3A3A3A3B8
:103D6300E0D2E0F0741112140DE06003023B197409
:103D73000112140DE014023B257900AA0CAB0D12BD
:103D83002392741F026E11E075F007A4F8A9F022C4
:103D9300A3A3125106E8228E828F83A312444C748C
:103DA3000522E0123DADA3A3A322F8A3E0F9850EFB
:103DB30082850F83A32274F0120B2674E81211A3D9
:103DC300E9852182852283F08A0E8B0F8A828B8379
:103DD300A3A3A3A3A3A3A3A3E0F91222EA8A088BB4
:103DE30009EA4B7003023E96E50E1256971242F40F
:103DF30012428B852182852283E06003023E997CF7
:103E030004850E82850F83A3A3A3A3A3A3A3A3E087
:103E1300F91222F0EE4F607B8E828F83A3A3A3A3BC
:103E2300124448740712140D12667A124448740936
:103E330012140D124F9FC0E0741112140DD0E01232
:103E43006A2BA3A3A3A3A3A3A3124448740F12141E
:103E53000D1271E2741212140DE4126E07C8241FBE
:103E6300F582E438F583126208C413135403FC701B
:103E7300027C048E828F83E0F978081210FC742090
:103E830059FD744059F974031211651223867402A3
:103E930012110F026E0F7C08850E82850F83A3A378
:103EA300A3A3A3A3A3A3E0F91222F08B0BEA4B7005
:103EB30003023E17EE4F60DB852182852283E0F506
:103EC3000C780C121100850882850983A3A3A3A390
:103ED300A3A3A3E0F50C780C1211008A828B83A3B1
:103EE300A3A3E0FB8A82850B83127A3F8A82850B28
:103EF30083E0FA8E828F83A3A3E0F9122BE474028A
:103F030012110F023E1B74F7120B2674FA1211A33F
:103F1300E9FE780179017F00800379000F12527E58
:103F2300E0FCEFC39C5026EF75F007A4FC85F00876
:103F3300AD08EA2CFCEB3DFD12486DE0A2E050DA3F
:103F4300540C60D6E0A2E250D3780080CF8A828BF3
:103F530083A3A3A3A3A3A3E0703DE9A2E040057458
:103F6300016E70338A828B83A3A3A3A3A3A37401DB
:103F730012425DE0C0E0740312140DD0E01248CC8D
:103F8300E0C0E0740412140DD0E0F0740512140DB7
:103F9300E81261A71224CA7406024AEAC082C083E7
:103FA3007901122392025FE374F4120B26EA4B9019
:103FB30018956019E4F08A088B09F50AF50B78085F
:103FC3001210F47A021234D112110F800A7401F024
:103FD3007A027B001234BE0235B974F0120B2674D8
:103FE300F31211A3740312140DE4F0A3F09015B2AD
:103FF30012428B740112140DE4F0A3124F7404F0F7
:104003009015ECE0A2E350030240D0124251740930
:1040130012140D1213DE740912140D780812139A78
:104023009015B47808121175740512140D780812DE
:10403300137C124154740512140D780812133D5069
:10404300077A017B00024141740512140D780C12AA
:10405300139A901839E0F509780C7908120AB7A871
:104063000CA90D90183AE0C398E4995003E080013D
:10407300E8852182852283F0740912140D780812D1
:10408300139AC008C009C00AC00B740512140D7836
:104093000C12139A124154780C7908120AB7E4F5FA
:1040A3000AF50BD00FD00ED00DD00C780C79081276
:1040B30012359015B4780C12137C801112414612FC
:1040C30071E2EEFAEFFB121B34AE08AF09EE4F605C
:1040D300658E828F83123744C398502DEE2403F8E4
:1040E300E43FF9E0FA88828983E0C39AF06023749D
:1040F3000312140D1245AE740112140DEEF0A3EF6A
:10410300126695FEA3E0FF80C48E828F83A3A3A3D0
:10411300E4F08E828F83127ED9740112140D12572C
:10412300148E828F83A3A3A3A3609112666E1214CD
:104133000D12414D8089740312140D125102740D36
:10414300026E1112444C9015B222126233A3A3A340
:1041530022901838127EE1E4F50AF50B2274F0126E
:104163000B268A088B09890A780079009015B21208
:10417300428BFBEE4B601E088E828F83A3A3A3A307
:104183001250CC601008E87001098E828F831242AE
:1041930087EA4F70E390183B125102C3E89AE99BF8
:1041A30040030242447A06124247A80CA90DEA4989
:1041B30070030242448A828B83E508F0A3E5091267
:1041C3004266E50AF090183A12528612425DA3E461
:1041D300F0A3F09015B21250CC600D8E828F83A3A2
:1041E300A3A3A31271E280179015B21271E2901586
:1041F300ECE0A2E340091242519015B41213DE9091
:1042030015ECE0A2E3503A7A087B00901597E0F9A9
:10421300121C06EA4B4C4D7028901838E0F508A3A1
:10422300E085080CF50DE4F50EF50F780C1210F48B
:104233007A087B00901597E0F9121BFA74041211A7
:104243000F026E147B00121B2E8A0C8B0D22121C84
:1042530018EAF8EBF9ECFAEDFB2212426122124262
:1042630066A322F08A828B83A3A322E508F0024A85
:10427300EDF08E828F83A3A3A3A3A3A322125B7E5D
:10428300A3A3F022A3A3A3A3E0FEA3E0FF227F0541
:10429300020E54F582E43509F583E0F922EA12426D
:1042A300A5222410F582E4221242B3A3A3A3A322DE
:1042B300124450850882850983221242C122F08567
:1042C3000A82850B83A3A322E50E24111242F1E097
:1042D30022E50E240E1242F122E50E24101242F1C1
:1042E300E0221242E922EE1242A53FF58322F58233
:1042F300E4350FF58322240FF50AE43509F50B782D
:104303000A22E0F9121AB08A088B09EA4B2274F2E6
:10431300120B26890B8A088B098A828B831251021E
:104323001223B6EA4B600479B8806A1223C2E9F813
:104333009032A7E493F9E8C399400479B280567A9E
:1043430015124247AE0CAF0DEA4F70047910804549
:104353008A828B83E4F0A3124266E50BF0750A00B0
:1043630078081210F87C127D00EA2403126D1E12E5
:10437300110F9015B812571470089015B8800C12CD
:1043830044488882898312439B70F4EEF0A3EFF0D4
:104393001223D479000251EE125106EA4B88828926
:1043A3008322C082C0839015B880048C828D8312CF
:1043B3007A40EC4D60288C828D83A3A3E06960056D
:1043C30074FF6970E68C828D83A3A3A3E06A7003F4
:1043D300A3E06B70D6EC2403FAE43DFB80047A007F
:1043E3007B00025FE374F7120B26E9FD74FE6D7028
:1043F300047C0180027C009015B880096D70027CFA
:104403000188828983125714601F88828983A3A33A
:10441300A3E06A7003A3E06B70E7ECA2E0888289F3
:1044230083A3A3E050D6F9800279FE024AEDEEF9A8
:10443300800CA3A3127EE1EE22740212110F7F02FD
:10444300020E54F58312444C2212445022E0F8A386
:10445300E0F9221244508E828F832212110F7F03C0
:10446300020E54C082C08379009015B8800109E020
:10447300FAA3E08A82F583E582458370F1025FE364
:1044830074F6120B26E4F508F50978081210FC906F
:1044930032A7E49375F013A4A9F01245A312724056
:1044A30012110FE9FE74096E70031223CE02443118
:1044B30074F6120B2674FE1211A3852182852283C2
:1044C300E4F0A3F0A821A92288088909780812102A
:1044D300FC75080275090078081210FC126EB112FF
:1044E300110F02443C74F5120B2674EB1211A385D1
:1044F3002182852283E4F0A3F09015B880748E8224
:104503008F83A3A3E0C0E0740212140DD0E0125B0A
:10451300C5A982AA8389088A09750A007808121036
:10452300F87C127D00740612140D12720512110F1D
:10453300740212115D8808890978081210FC750845
:104543001375090078081210FC740412140D125626
:10455300B775F013A4F8AAF075F013E912459F128A
:104563006EB912110F8521828522831245AE8E8288
:104573008F8312428BEE4F7085A821A92288088968
:104583000978081210FC75080275090078081210E2
:10459300FC126EB112110F741502445EA42AF9E8DD
:1045A3002402FCE439FD7A427B0022E02401F0A3DB
:1045B300E03400F02274F4120B2674EB1211A37E84
:1045C300007F00A821A9228808890978081210FC15
:1045D3007508028E0978081210FC7C007D007A426F
:1045E30012724C12110FE9706C8E0880567402120D
:1045F300115D880A890B780A1210FC750A13750B72
:1046030000780A1210FCE50875F013A4F8AAF075F7
:10461300F013E50912459F12724E12110FE9701B38
:10462300740312140DAA82AB83740212140DE0F901
:104633001223B0E970050EEE70010F0508E508704E
:10464300020509852182852283124448C3E508981F
:10465300E509994098EEFAEFFB74150235B674F646
:10466300120B268C828D83A3A31248BAF0EA12643C
:10467300DB3BF583E0C0E0124877D0E0F0EA241D8D
:10468300F582E43B12444612485B1248B5F0A3F0AE
:10469300EA241FF582E43BF58312428BEC12484E69
:1046A3003DF583EEF0A3EFF01248543BF583124837
:1046B30085A3A3A3A3A3A3EEF0A3EF126136FE8CFD
:1046C300828D831248C474035EFEC39403400302C5
:1046D3004841EE600874026E60030247668C828D67
:1046E30083E0540CFE740C6E70030247A5E0A2E451
:1046F300400D88828983E08C828D83A31248DA740B
:10470300086E60030247A51248657401F08A828B24
:1047130083A3A3A3A3A3125B8B70148C828D83E06A
:10472300440C1248CCA3A3124885EEF0A3EFF08CFF
:10473300828D83E0A2E4402B88821248931248A81A
:10474300500109F582124893A3A3A3A3A3A3F0A343
:10475300EF1248D48C828D83A3A3A3F0E82403F83B
:1047630050010988828983E0C0E0EC2411F582E4DA
:104773003DF583D0E01248C48C828D83E0A2E750DC
:104783007588828983E0FE8C828D831248DA74FCFB
:104793005E700C8C828D83A3E054036403701E024D
:1047A3004841124865E4F0740C6E600302471088B8
:1047B300821248991248A85001090247328C828D0F
:1047C30083A3E05403603288828983E0C0E0EC1263
:1047D300487F3DF583D0E01248DB8C828D83E05423
:1047E300036402701488828983E0C0E012486DD0AC
:1047F300E01248DB8003A3E4F0EC1256833D127110
:10480300E0EC2410FEE43DFFEA241DF582E43BF5D1
:1048130083E0F5088E828F83E0C3982508F508F0BE
:10482300EA2417F8E43BF98882F583E0C39508C0CE
:10483300E012485BD0E0126136C39508500A124873
:104843005BE4F0124877E4F00244412415F582E476
:1048530022EA240DF582E422EC240DF582E43DF5F1
:104863008322EC12583C3DF58322EC2414F582E4B8
:104873003DF58322EC1242A53DF583222413F582F4
:10488300E422E0FEA3E0FF8C828D83A3A3A3A322F3
:10489300124899A3A3228983E0F508A3E0FFE50862
:1048A3008C828D8322A3A3A3A3F0A3EFF0E82402B9
:1048B300F8221248BAA322E4F08C828D83A3A3A327
:1048C300221248E2A882A98322124261A3A3A3A3CE
:1048D300221248E2A3E022A31248E208A98322128B
:1048E300613FA32274F4120B2674F31211A38A0AF4
:1048F3008B0BECFEEDFF8C82F583E0540CF508E0A6
:10490300A2E75006E508D2E7F508E508D2E1F50885
:10491300125B8B7006E508D2E4F508E0A2E55006C9
:10492300E508D2E5F5087C087D007900AA21AB22D1
:10493300121A86740212140DE5081271E6C0E074AF
:104943000312140DD0E0124F74E50AF0A3E50BF047
:10495300740512140D126A5212140DE07077740864
:1049630012140D124EFA12612838126A6DC0E074E7
:104973000812140D1249FBD0E0126A4DC0E074080E
:1049830012140D1249F1D0E0F0740812140D1249FB
:10499300E7E0124F22124FA312653CEE2411125B83
:1049A30057C0E01249DDD0E0F0EE2414125B57C08B
:1049B300E0740812140D124EFA2435F582E438F52A
:1049C30083D0E0124F47C0E0740812140D124EFE5C
:1049D300D0E01267A6740D0235B6E82432F582E4FE
:1049E30039F58322124456A3A3A3A3A3A322124FF0
:1049F3000E126C4C38F58322124F0E2426F582E4F6
:104A030038F5832274F7120B267E008A828B83A3E8
:104A1300A3A3A3A3A3A3A3A3E064046003024AC9BB
:104A2300125834E06003024AC91256963B125712D9
:104A33007003024AC988828983E054036003024AEF
:104A4300C9E812583C39F583E0FA8C828D83A3A31D
:104A5300E0FBA3E0CB2411F582E43BF583E06A702D
:104A63006588828983A3A3A3A3A3A3A3A3A3124AB1
:104A7300CDE06A7003A3E06B704C88828983A3A3A3
:104A8300124AD9E0FFA3E0CF2406125B576A7003F2
:104A9300A3E06B703188828983A3A3E0F88C828DB5
:104AA30083A3A3E0F9A3E0F5838982A3A3E068606D
:104AB300138C828D83A3A3A3E0F5838982E0540C36
:104AC300640470027E01EEF98020124AD122125151
:104AD3000A8C828D8322A3A3124AD1A3A322740C2E
:104AE30012140DE0F9740D12110F7F01020E5474AC
:104AF300F6120B2674FC1211A3EAFEEBFFECFAED9F
:104B0300FB8C82F583A3E0540360169015AE125715
:104B13001460597900EEFCEFFD126333122C108000
:104B23004B852182852283EEF0A3EFF074021214E9
:104B33000D124F69AC21AD227AEC7B231226148A25
:104B4300088B09A808A909EA4960218A828B83A3F3
:104B5300A3A3A3A3A3A3A3A37406F07A0088828BC1
:104B630083124EFA1264FCE0F912257274040244B3
:104B73003E74F2120B2674F31211A3EAFEEBFF8AC2
:104B830082F583A3A3A3A3A3A3A3A3A3A3E0F50AEB
:104B9300901895E0700579BA024EB275080175094F
:104BA30000750C00750D007C087D007900AA21AB0F
:104BB30022121A86740512140D7401124F7C5404C8
:104BC3006012740212140DE0D2E6124F7C54087086
:104BD30003750803E05410600674404508F508E0C7
:104BE30054086022740212140DE044C0124F7C5426
:104BF30020600A740312140DE0D2E08008740312DB
:104C0300140DE0D2E1F0EE2415125B57124EE27060
:104C130003740169700674084508F5088E828F8352
:104C2300A3A3A3A3A3A3A3A3E0701612266E8521B7
:104C330082852283126549740212140DE0D2E28048
:104C430030640F7010740212140D124F84740445F3
:104C530008F508807F8E828F83A3A3A3A3A3A3A3B6
:104C6300A3E064028E828F83700A127219E8F0A3A4
:104C7300E9F08060A3A3A3A3A3A3A3A3E0640370A9
:104C83000DAC21AD22EEFAEFFB12242280468E8278
:104C93008F83A3A3A3A3A3A3A3A3E064017035906D
:104CA3001642E06010740212140D124F847509103D
:104CB300750AFF8018740212140DE0440C124F742D
:104CC30074FDF0A374FFF074044508F5088E828F19
:104CD300831234C9EE2415125B57A2E0503F7402CD
:104CE30012140DE0540C701B8E828F83125102122A
:104CF300206EE9700579BB024EB2740212140DE006
:104D0300D2E5F0EE2415125B57A2E05010740212A4
:104D1300140DE0540C64047004E0D2E5F0EE2411A9
:104D2300125B57C0E0740412140DD0E0126A5412DF
:104D3300140DE06003024EAB740812140D124F3DC4
:104D4300E508F0A3E509F0124ED8E0C0E0124ECE1C
:104D5300D0E0F0124EBFE0C0E0740812140D124E02
:104D6300FA12487F38F583D0E0124FA36401701123
:104D7300901642E0C0E0740812140D124F18D0E0F0
:104D8300F0740812140D124F38124EC9FAE8241C9D
:104D9300F582E439F583EA124F6FEE2415FAE43F06
:104DA300FB8A82F583127A40E8125E9339F5831207
:104DB3004F69EE241C125B57C0E0124EB5D0E012CF
:104DC3005FD9124EE27003740169701374081214F0
:104DD3000D125824FAEE241D125B57F91222F68E97
:104DE300828F83A3A3A3A3A3A3A3A3A3E0C0E0747D
:104DF3000812140D1249FBD0E0F0740812140D12BE
:104E030049F1E50AF0740812140D1256B72428F577
:104E130082E439F583E50CF0A3E50D124F4F124FF1
:104E230022125BD012653CEE124EC9C0E0E8243377
:104E3300F582E439F583D0E0F0EE241B125B57C012
:104E4300E0740812140D124EFED0E0F0EE241A1294
:104E53005B57C0E0740812140D124EFA2432F58227
:104E6300E438F583D0E0124F47124EEE1210F812D9
:104E73006C52127A40740B12140D124EFA242F1234
:104E83007F1C12110FEE2415125B575440601290D1
:104E930015CE125714600AAA21AB22126333122CC7
:104EA30010AA21AB22122494740C12140DE0F902FF
:104EB30051E9E82420F582E439F58322EE2419F53B
:104EC30082E43FF58322126C61E022E82412F5822A
:104ED300E439F58322EE2418F582E43FF583225466
:104EE30080F8A3E05401F974806822F508A3E0F583
:104EF30009750A00780822124F0E22124F0E24342D
:104F0300F582E438F58322A3A3A3A3124F1222E070
:104F1300F8A3E0C822124F0E12484E38F58322FA46
:104F2300A3E0FBE8242AF582E439F583EAF0A3EB56
:104F330022A3A3A3A312444CEE221256BB12569BE8
:104F430039F58322F0EE2413125BD822F0EE240D00
:104F5300125BD822E0FC8A828B83E02CFCA3E03432
:104F630000FD8A828B83ECF0A3EDF022F0A3E4F042
:104F730022F085218285228322F0EE2415125BD84C
:104F830022E0D2E3F0124F8C228E828F83124450A0
:104F9300852182852283E8F0A3E9F022E8F0A3E9E2
:104FA30012668FE02274F7120B268A828B83A3E0AA
:104FB300640170047E6380027E648A828B83E06076
:104FC300087905124FDC24F3FE9015EAE06007F937
:104FD300124FDC24F2FE024AC912253CE9F8EEC363
:104FE300982274F6120B2674FE1211A38521828572
:104FF3002283126549E9FEECFAEDFB9005C21257D4
:10500300146032A821A9228808890978081210FCA3
:105013007D01740E12140DE0FCEEF99005C21265C9
:105023001D122C10740212110FEA4B6004790080D8
:105033000679B2800279B602443C74F7120B26E972
:10504300FE9015A4125714601F740912140DE0F595
:10505300087808121100EEF99015A412651D122CA0
:1050630010740112110F800279B6024AED74F7121F
:105073000B268908ECFEEDFF79B5E508245E602078
:1050830014600624F86034803D9005C41250CC604F
:105093003512725D122C108E828F83126549802423
:1050A3009015A6127A40EC4D601CEEFCEFFD9015B6
:1050B300A612651D122C10E9F9800B9015A212504F
:1050C300D2121C307900024AED125106EA4B221229
:1050D3007A44EEFAEFFB2274F7120B26E9FE79B558
:1050E30074AB6E700B9015A2125102121C30790032
:1050F300024AED8E828F83A3A3A3A3A3A3A3A31228
:1051030051062212510A22E0FAA3E0FB2274F112A3
:105113000B26EAFEEBFF8C0A8D0B7508019015F246
:10512300E06E7003A3E06F700C1251DDAA0AAB0BA3
:10513300121C30805E122674EE6A7002EF6B7009E7
:10514300AA0AAB0B12267A804AAC0AAD0BEEFAEF31
:10515300FB1221CAE9F508901840E07036122B18AB
:10516300E97030E508702C9015C2E06E7003A3E07F
:105173006F7020EE4F601C750CBA750D15750E001F
:10518300780C1210F87C087D00AA0AAB0B12720986
:1051930012110FA908027B3C74F2120B26EAFEEBF4
:1051A300FF8C088D09750A011251DDEEFAEFFB122F
:1051B3001C2AE9640170119015F212444885088293
:1051C3008509831271E2800EAC08AD09EEFAEFFB9C
:1051D3001221D0E9F50AA90A80111226688A0C8BDC
:1051E3000DAC0CAD0D22740D12110F7F06020E547F
:1051F30074F6120B26EAFEEBFF7A0D7B00121B2ED0
:10520300EA4B6062EE2424126EE6F0EE2425126E61
:10521300E6A31252AB126EECA3A3126C7F1252865A
:10522300F0EE12526C12529BE8F0A3E91252C21232
:1052330052931271E2EE125275126D42A3A3A3A30D
:10524300F0EE2433125B57C0E012527ED0E0126AB4
:1052530071125293A3A3A3E8F0A3E91252BAC0E0D8
:10526300125834D0E0F0024441242AF582E43FF599
:105273008322242EF582E43FF58322EA125CAD3BC0
:10528300F5832212528A22E08A828B83A3A3A3226C
:10529300126DA1A3A3A3A32212529F221244508AE8
:1052A300828B83A3A3A3A322F01252B022EE24265F
:1052B300F582E43FF58322F0EE2432125BD822F02C
:1052C300EE242C125BD82274F4120B2674FE1211F6
:1052D300A3ECFEEDFFEC2416125B5764057010EC93
:1052E3002406FCE43FFD12241CE97003025376AC50
:1052F30021AD22126F9B1220748521828522831295
:105303005714606B8E828F83E064017058E875F0E8
:1053130009A4F8AAF075F009E9A42AF9741928F880
:10532300740339F9E8FAE9FB8882F58378081213E4
:105333009AEE12541812133D402785218285228349
:10534300124F38125B6512537B780812139A9089B7
:105353007F78081212BE8A828B83780812137C80AE
:105363000A79A28010EE240F1271DC79008006798D
:10537300A1800279C80235B4124F99EE126C6D22E6
:1053830074F2120B268A0C8B0DECFEEDFFEC125B14
:1053930065E4F0A3F090893B780812139AEC125459
:1053A300181211B96067EC240E125B5E703478B387
:1053B3009015E9E0702890161BE064017020EC243E
:1053C30011125B57F91225248B09A909EE1256977E
:1053D3003F126547EA4960047800800278A1880893
:1053E300802EE060046402700A12242EE9F508702E
:1053F30007801DE064037010EEFCEFFDAA0CAB0DFB
:10540300122098E9F50880087508A180037508A3A0
:10541300A9080251EE126C6D78082274F0120B2663
:1054230074F51211A3EAFEEBFFEA240AFCE43F8CB5
:1054330082F583127EDD1256A1740312116D8A82E6
:105443008B8312633DE97003025507740112116DDA
:105453007403121165122074740112140D1257147F
:105463007003025507E875F009A4F8AAF075F0096E
:10547300E9A42AF9741528FC740339FDE508240E00
:1054830012678EE4F00412140D124448E508125614
:105493009735091271E08C828D831213D2E50824AB
:1054A3001212678E1213DE90897F780812139A8C7A
:1054B300828D8378081212D18C828D83780C12131B
:1054C3009A908A3B780812139A780C7908120AB7D3
:1054D300E5084509450A450B702A740112140D129B
:1054E30056B775F009A4F8AAF075F009E9A42AF9EA
:1054F300741D28F582740339F5837401F07A007BF7
:10550300081256C48E828F83A3A3A3A3A3A3A3A32A
:10551300A3A3E02406FCA3E03400FD8E828F831254
:10552300633D126A5F603EEE240A125689124F3DB4
:105533007468124F6FE812568339F5837402F09042
:1055430015D41213D28C828D831265361261283CD6
:10555300F5831213DE90897F780812139A9015D47D
:1055630078081212D11256FF705D9015A21256AF31
:10557300A3A3A3A3A3A3A3A3A3A312615E121C2AA1
:10558300E9701012611C9015A212612E7005126A47
:105593005F60348E828F83A3A3A3A3A3A3A3A3A338
:1055A300A31256AF12510212209EE960118E828F10
:1055B30083A3A3A3A3A3A31256EBE4F0A3F08E82C9
:1055C3008F831256D1E4F01256FF600302567E8E8B
:1055D300828F83A3A3A3A3A3A3127ED99015E9E08B
:1055E300600302567390161BE06401600302567356
:1055F300750A3A750B00780A1210FC740212115DD9
:10560300880A890B780A1210FC1274D812110FE958
:10561300705BE508240E12678E7401125719C0E0FF
:10562300E508241112678ED0E0F0E508240F126715
:105633008E743A124F6F9015D01213D2E5082412CC
:1056430012678E1213DE90897F780812139A9015D1
:10565300D078081212D190897F780812139A901586
:10566300D078081211B970081256C080031256A1DF
:105673001256FF700612601F74A1F0740B026E11B4
:10568300240EF582E422F8E43FF9E8FCE9FD888280
:10569300F58322EA12569B22240FF582E422E508C1
:1056A30012569B3509F583E4F0A3F022127A448E57
:1056B300828F83221256BB22124450E8227A007B47
:1056C30002901479E0F9121ADA228A828B83A3A357
:1056D300A3A3A3A3A3A3A3A31256DF22124F1224AF
:1056E3000EF582E438F58322A3A3A3A31256F32273
:1056F300124F12240FF582E438F583228E828F83B2
:10570300A3A3A3A3A3A3124F0A240FF582E438F59E
:10571300831256BB492212571D22F085218285220E
:1057230083E02274F6120B26EAFEEBFF7A237B005A
:10573300121B2EEE240AF508E43FF50985088212B0
:1057430065477C237D007900121A868508828509C6
:105753008312571470030257E7EEFAEFFB12243A51
:105763001256FF60748E828F8312581A64018E82E0
:105773008F83A3A3A3A3A3A37007125810740E804F
:10578300211257147010126A5F700B8E828F83A3DD
:10579300A3E0A2E05007125806740D8005125806C4
:1057A3007405126A715403640170071257EE74058D
:1057B300800B9015EAE0C0E01257EED0E0125829B2
:1057C300F5838882125B84850882850983124EFAE9
:1057D3001264DB38F583E9800E850882850983121C
:1057E30065C08003126503F00244418E828F83A358
:1057F300A3A3A3A3A3A3A3A3A312580022E0126508
:1058030022A3228E828F83A3A3A3A3A3A3124F0A4F
:105813001264E138F58322A3A3A3A3A3A3A3A3A3A1
:10582300A31256DFE02212582D22126FB0F8A3E024
:1058330022EA12583C3BF58322240CF582E42274BD
:10584300F1120B2674E41211A38A0C8B0D8C088DB4
:10585300097A237B00121B2E8A0A8B0BAE0AAF0B2D
:10586300EA4F7003025B3F1264E7E5082415125BFD
:1058730070687003A3E0698E828F83700474028062
:10588300027401F0E508240DF8E43509F98882F57E
:1058930083E0FAC3E49AFA95E0FB125B6C2AFAA35D
:1058A300E03BFB8E828F83A3A3A3A31261458E8269
:1058B3008F83A3A3F0EE2420F582E43FF583E4F085
:1058C300EE2421F582E43FF583E4F0EEFAEFFB12D8
:1058D30024EE850882850983125B8B70098E828F83
:1058E30083A3740580069015EA125B79F0EE241702
:1058F300F50AE43FF50B8E828F83125B84E9850AF8
:1059030082850B83F0EE2416F8E43FF9E508240EB4
:10591300FAE43509FB88828983124F57E50824107E
:10592300FAE43509FB850A82850B83E0FC888289CA
:1059330083E0F88A828B83E0C398C39CF8125BC52B
:10594300F0EEFCEFFDAA0CAB0D122434E9F50B8E3F
:10595300828F83E06402700612611C125B49E50BBF
:105963006003025B36750C00750D00901840E0640F
:10597300016005E06402703F125B5B6008EE242166
:10598300125B5E70328E828F83A3A3A3126509120A
:105993005B91EE2416125B57125BBAFAE439FB12E1
:1059A3004249EA4B6011126D6B1210F8125B9FAA09
:1059B3000C12720912110FEEFAEFFB1224FAE9F539
:1059C3000B901840E064016008E064026003025B2E
:1059D30029E97003025B29E50C450D7003025B3670
:1059E3008003850E0B125B5B600BEE2421125B5E62
:1059F3006003025B2F850B0E850C08850D09750A64
:105A03000078081210F8125B9F8E828F83A3A3A3E2
:105A1300A3127F2212110FEE2420125B57600D1286
:105A23005B647468124F6FEE24208015EE242112FC
:105A33005B576015125B647403F0A37401F0EE24EA
:105A430021F582E43FF583E4F0EEFAEFFB1224FA4A
:105A5300E9F50B70907C137D0079007409121165D0
:105A6300121A86741A12140D7401125BD0646870D2
:105A730002A3E0704F8E828F831256EBE0640560C1
:105A8300030259E57C0879FF8E828F83A3A3A3A326
:105A9300E0242A126161121B10E970030259E57CAC
:105AA300087D0079FF7401121165121A86740112C0
:105AB300116D7A007B0079AB122416741912140D40
:105AC30074FC8015125B64E064037004A3E064015A
:105AD3007008741912140D74FFF0E4F508F50978D1
:105AE300081210FC740212116D741312140DAA82A1
:105AF300AB8312664612110F852182852283E060F3
:105B03002B740912115D8808890978081210FC7535
:105B1300081375090078081210FC7C007D00126ED2
:105B2300B912110F8006E50C450D6007AA0CAB0DE9
